{
  "transactions": [
    {
      "hash": "0xb12caae344fd4049a67c5b0e28c5512aae7d0158d1fd66c1a2b2f905f2682cd0",
      "transactionType": "CALL",
      "contractName": null,
      "contractAddress": "0x7ecf113b2c5b882ff6dc9bde5c30cd9a20f9a807",
      "function": "createOption(bool,uint256,uint256,uint256,uint256,uint256,uint256,uint64,uint8)",
      "arguments": [
        "true",
        "10000000000000",
        "10000000000000",
        "1751217072",
        "1751389872",
        "10",
        "10000000000000",
        "1",
        "0"
      ],
      "transaction": {
        "from": "0xa8a7da49bf284f2e00fc8857464c1652095ca338",
        "to": "0x7ecf113b2c5b882ff6dc9bde5c30cd9a20f9a807",
        "gas": "0x514e0",
        "value": "0x0",
        "input": "0xc1f83e8d0000000000000000000000000000000000000000000000000000000000000001000000000000000000000000000000000000000000000000000009184e72a000000000000000000000000000000000000000000000000000000009184e72a00000000000000000000000000000000000000000000000000000000000686173b000000000000000000000000000000000000000000000000000000000686416b0000000000000000000000000000000000000000000000000000000000000000a000000000000000000000000000000000000000000000000000009184e72a00000000000000000000000000000000000000000000000000000000000000000010000000000000000000000000000000000000000000000000000000000000000",
        "nonce": "0x141",
        "chainId": "0x14a34"
      },
      "additionalContracts": [],
      "isFixedGasLimit": false
    }
  ],
  "receipts": [
    {
      "status": "0x1",
      "cumulativeGasUsed": "0x6257df",
      "logs": [
        {
          "address": "0xc997288d1e971df9667dcb906cdbfd6fb4e50a7b",
          "topics": [
            "0xddf252ad1be2c89b69c2b068fc378daa952ba7f163c4a11628f55a4df523b3ef",
            "0x000000000000000000000000a8a7da49bf284f2e00fc8857464c1652095ca338",
            "0x0000000000000000000000007ecf113b2c5b882ff6dc9bde5c30cd9a20f9a807"
          ],
          "data": "0x00000000000000000000000000000000000000000000000000005af3107a4000",
          "blockHash": "0x2347ffc5a1ee4a6223699ad7c5c24d0c643bafe30c25021fa99fcd87356a88df",
          "blockNumber": "0x1a5102c",
          "transactionHash": "0xb12caae344fd4049a67c5b0e28c5512aae7d0158d1fd66c1a2b2f905f2682cd0",
          "transactionIndex": "0x14",
          "logIndex": "0xc1",
          "removed": false
        },
        {
          "address": "0x7ecf113b2c5b882ff6dc9bde5c30cd9a20f9a807",
          "topics": [
            "0x153a309a1eed1eb4a96469bedfff0aa799c297f5e800da3c4c158e9157aed26a",
            "0x0000000000000000000000000000000000000000000000000000000000000008",
            "0x000000000000000000000000a8a7da49bf284f2e00fc8857464c1652095ca338"
          ],
          "data": "0x0000000000000000000000000000000000000000000000000000000000000001000000000000000000000000000000000000000000000000000009184e72a000000000000000000000000000000000000000000000000000000009184e72a00000000000000000000000000000000000000000000000000000000000686416b000000000000000000000000000000000000000000000000000000000686173b0000000000000000000000000000000000000000000000000000000000000000a000000000000000000000000000000000000000000000000000009184e72a00000000000000000000000000000000000000000000000000000000000000000010000000000000000000000000000000000000000000000000000000000000000",
          "blockHash": "0x2347ffc5a1ee4a6223699ad7c5c24d0c643bafe30c25021fa99fcd87356a88df",
          "blockNumber": "0x1a5102c",
          "transactionHash": "0xb12caae344fd4049a67c5b0e28c5512aae7d0158d1fd66c1a2b2f905f2682cd0",
          "transactionIndex": "0x14",
          "logIndex": "0xc2",
          "removed": false
        }
      ],
      "logsBloom": "0x00000040000800400000000000400000000000000000000000000000000000000000000000000000000000000000000000000000008080000000000000000000000000000000000040000008000000000000000000000000000010000000000000000000000000000008000000000000000000000000400000000090000000000080000000000000000001000000000000000000000000000000000200000000000000000000000000000000000000000000000000000000000000000000000040000002000000001000000000000000000000040000000000000000000000100000000000000000000000000000000000000000000000000000000000000000",
      "type": "0x2",
      "transactionHash": "0xb12caae344fd4049a67c5b0e28c5512aae7d0158d1fd66c1a2b2f905f2682cd0",
      "transactionIndex": "0x14",
      "blockHash": "0x2347ffc5a1ee4a6223699ad7c5c24d0c643bafe30c25021fa99fcd87356a88df",
      "blockNumber": "0x1a5102c",
      "gasUsed": "0x3add0",
      "effectiveGasPrice": "0xf42ba",
      "from": "0xa8a7da49bf284f2e00fc8857464c1652095ca338",
      "to": "0x7ecf113b2c5b882ff6dc9bde5c30cd9a20f9a807",
      "contractAddress": null,
      "l1BaseFeeScalar": "0x44d",
      "l1BlobBaseFee": "0x1",
      "l1BlobBaseFeeScalar": "0xa118b",
      "l1Fee": "0x19b1fa",
      "l1GasPrice": "0xd19eb",
      "l1GasUsed": "0x6f5"
    }
  ],
  "libraries": [],
  "pending": [],
  "returns": {},
  "timestamp": 1750957881,
  "chain": 84532,
  "commit": "7aa3a80"
}