{
  "transactions": [
    {
      "hash": "0x3287f8f9fed2fa8b3c6c659360a360775bc28e5def48d369f489c788cd0a7c50",
      "transactionType": "CALL",
      "contractName": null,
      "contractAddress": "0x674496fffc1ad1a11ef5b41c191fd7a698a0eb09",
      "function": "createOption(bool,uint256,uint256,uint256,uint256,uint256,uint256,uint64,uint8)",
      "arguments": [
        "true",
        "383000000000",
        "6843000000000",
        "1751558762",
        "1752422762",
        "2",
        "1307000000000",
        "0",
        "0"
      ],
      "transaction": {
        "from": "0xa8a7da49bf284f2e00fc8857464c1652095ca338",
        "to": "0x674496fffc1ad1a11ef5b41c191fd7a698a0eb09",
        "gas": "0x514bf",
        "value": "0x0",
        "input": "0xc1f83e8d0000000000000000000000000000000000000000000000000000000000000001000000000000000000000000000000000000000000000000000000592c9436000000000000000000000000000000000000000000000000000000063942958e00000000000000000000000000000000000000000000000000000000006866aa6a000000000000000000000000000000000000000000000000000000006873d96a0000000000000000000000000000000000000000000000000000000000000002000000000000000000000000000000000000000000000000000001304f454e0000000000000000000000000000000000000000000000000000000000000000000000000000000000000000000000000000000000000000000000000000000000",
        "nonce": "0x10d",
        "chainId": "0x14a34"
      },
      "additionalContracts": [],
      "isFixedGasLimit": false
    },
    {
      "hash": "0x2edbd79ec63c686102643f953af841286c2b71c48d751293553c7a75d2c5d9ff",
      "transactionType": "CALL",
      "contractName": null,
      "contractAddress": "0x674496fffc1ad1a11ef5b41c191fd7a698a0eb09",
      "function": "createOption(bool,uint256,uint256,uint256,uint256,uint256,uint256,uint64,uint8)",
      "arguments": [
        "true",
        "171000000000",
        "4634000000000",
        "1751385962",
        "1752422762",
        "7",
        "1165000000000",
        "0",
        "1"
      ],
      "transaction": {
        "from": "0xa8a7da49bf284f2e00fc8857464c1652095ca338",
        "to": "0x674496fffc1ad1a11ef5b41c191fd7a698a0eb09",
        "gas": "0x5802f",
        "value": "0x0",
        "input": "0xc1f83e8d000000000000000000000000000000000000000000000000000000000000000100000000000000000000000000000000000000000000000000000027d064ee0000000000000000000000000000000000000000000000000000000436efec8400000000000000000000000000000000000000000000000000000000006864076a000000000000000000000000000000000000000000000000000000006873d96a00000000000000000000000000000000000000000000000000000000000000070000000000000000000000000000000000000000000000000000010f3f69420000000000000000000000000000000000000000000000000000000000000000000000000000000000000000000000000000000000000000000000000000000001",
        "nonce": "0x10e",
        "chainId": "0x14a34"
      },
      "additionalContracts": [],
      "isFixedGasLimit": false
    },
    {
      "hash": "0x739de1f5d45191999abc0c80cd714f177fdce2cfc8e93c16f40e876a28eb11b9",
      "transactionType": "CALL",
      "contractName": null,
      "contractAddress": "0x674496fffc1ad1a11ef5b41c191fd7a698a0eb09",
      "function": "createOption(bool,uint256,uint256,uint256,uint256,uint256,uint256,uint64,uint8)",
      "arguments": [
        "false",
        "201000000000",
        "7242000000000",
        "1751558762",
        "1752163562",
        "1",
        "1186000000000",
        "0",
        "2"
      ],
      "transaction": {
        "from": "0xa8a7da49bf284f2e00fc8857464c1652095ca338",
        "to": "0x674496fffc1ad1a11ef5b41c191fd7a698a0eb09",
        "gas": "0x5d2fd",
        "value": "0x0",
        "input": "0xc1f83e8d00000000000000000000000000000000000000000000000000000000000000000000000000000000000000000000000000000000000000000000002ecc889a000000000000000000000000000000000000000000000000000000069628d66400000000000000000000000000000000000000000000000000000000006866aa6a00000000000000000000000000000000000000000000000000000000686fe4ea000000000000000000000000000000000000000000000000000000000000000100000000000000000000000000000000000000000000000000000114231bd40000000000000000000000000000000000000000000000000000000000000000000000000000000000000000000000000000000000000000000000000000000002",
        "nonce": "0x10f",
        "chainId": "0x14a34"
      },
      "additionalContracts": [],
      "isFixedGasLimit": false
    },
    {
      "hash": "0xeaaa557fca6fe169b4167979e3edc8b0adb02a8bcc05ae5fc970102a8046a080",
      "transactionType": "CALL",
      "contractName": null,
      "contractAddress": "0x674496fffc1ad1a11ef5b41c191fd7a698a0eb09",
      "function": "createOption(bool,uint256,uint256,uint256,uint256,uint256,uint256,uint64,uint8)",
      "arguments": [
        "false",
        "300000000000",
        "7108000000000",
        "1751472362",
        "1752163562",
        "4",
        "2796000000000",
        "0",
        "0"
      ],
      "transaction": {
        "from": "0xa8a7da49bf284f2e00fc8857464c1652095ca338",
        "to": "0x674496fffc1ad1a11ef5b41c191fd7a698a0eb09",
        "gas": "0x5613b",
        "value": "0x0",
        "input": "0xc1f83e8d000000000000000000000000000000000000000000000000000000000000000000000000000000000000000000000000000000000000000000000045d964b80000000000000000000000000000000000000000000000000000000676f5d0a80000000000000000000000000000000000000000000000000000000000686558ea00000000000000000000000000000000000000000000000000000000686fe4ea00000000000000000000000000000000000000000000000000000000000000040000000000000000000000000000000000000000000000000000028afe96380000000000000000000000000000000000000000000000000000000000000000000000000000000000000000000000000000000000000000000000000000000000",
        "nonce": "0x110",
        "chainId": "0x14a34"
      },
      "additionalContracts": [],
      "isFixedGasLimit": false
    },
    {
      "hash": "0xd767eb390d25a222b01da4464c09272476e90c483311693cb884198453485f99",
      "transactionType": "CALL",
      "contractName": null,
      "contractAddress": "0x674496fffc1ad1a11ef5b41c191fd7a698a0eb09",
      "function": "createOption(bool,uint256,uint256,uint256,uint256,uint256,uint256,uint64,uint8)",
      "arguments": [
        "false",
        "339000000000",
        "2796000000000",
        "1751213162",
        "1752163562",
        "9",
        "1763000000000",
        "0",
        "1"
      ],
      "transaction": {
        "from": "0xa8a7da49bf284f2e00fc8857464c1652095ca338",
        "to": "0x674496fffc1ad1a11ef5b41c191fd7a698a0eb09",
        "gas": "0x5d2fd",
        "value": "0x0",
        "input": "0xc1f83e8d00000000000000000000000000000000000000000000000000000000000000000000000000000000000000000000000000000000000000000000004eedf97e000000000000000000000000000000000000000000000000000000028afe963800000000000000000000000000000000000000000000000000000000006861646a00000000000000000000000000000000000000000000000000000000686fe4ea00000000000000000000000000000000000000000000000000000000000000090000000000000000000000000000000000000000000000000000019a7afd1e0000000000000000000000000000000000000000000000000000000000000000000000000000000000000000000000000000000000000000000000000000000001",
        "nonce": "0x111",
        "chainId": "0x14a34"
      },
      "additionalContracts": [],
      "isFixedGasLimit": false
    },
    {
      "hash": "0x381ddaa09544e966d07991e1cfc425070fccfa16724af93bf86b5b6068c91be0",
      "transactionType": "CALL",
      "contractName": null,
      "contractAddress": "0x674496fffc1ad1a11ef5b41c191fd7a698a0eb09",
      "function": "createOption(bool,uint256,uint256,uint256,uint256,uint256,uint256,uint64,uint8)",
      "arguments": [
        "true",
        "231000000000",
        "6299000000000",
        "1751299562",
        "1752077162",
        "2",
        "1046000000000",
        "1",
        "0"
      ],
      "transaction": {
        "from": "0xa8a7da49bf284f2e00fc8857464c1652095ca338",
        "to": "0x674496fffc1ad1a11ef5b41c191fd7a698a0eb09",
        "gas": "0x514bf",
        "value": "0x0",
        "input": "0xc1f83e8d000000000000000000000000000000000000000000000000000000000000000100000000000000000000000000000000000000000000000000000035c8ac4600000000000000000000000000000000000000000000000000000005ba99a84e00000000000000000000000000000000000000000000000000000000006862b5ea00000000000000000000000000000000000000000000000000000000686e936a0000000000000000000000000000000000000000000000000000000000000002000000000000000000000000000000000000000000000000000000f38a755c0000000000000000000000000000000000000000000000000000000000000000010000000000000000000000000000000000000000000000000000000000000000",
        "nonce": "0x112",
        "chainId": "0x14a34"
      },
      "additionalContracts": [],
      "isFixedGasLimit": false
    },
    {
      "hash": "0xfc9abfc6c633fbcecb139daa87fba75fc952fdccb97e51d9449244abb286b0bb",
      "transactionType": "CALL",
      "contractName": null,
      "contractAddress": "0x674496fffc1ad1a11ef5b41c191fd7a698a0eb09",
      "function": "createOption(bool,uint256,uint256,uint256,uint256,uint256,uint256,uint64,uint8)",
      "arguments": [
        "true",
        "337000000000",
        "6940000000000",
        "1751299562",
        "1752336362",
        "4",
        "2419000000000",
        "1",
        "1"
      ],
      "transaction": {
        "from": "0xa8a7da49bf284f2e00fc8857464c1652095ca338",
        "to": "0x674496fffc1ad1a11ef5b41c191fd7a698a0eb09",
        "gas": "0x5803e",
        "value": "0x0",
        "input": "0xc1f83e8d00000000000000000000000000000000000000000000000000000000000000010000000000000000000000000000000000000000000000000000004e76c3ea000000000000000000000000000000000000000000000000000000064fd83c1800000000000000000000000000000000000000000000000000000000006862b5ea00000000000000000000000000000000000000000000000000000000687287ea00000000000000000000000000000000000000000000000000000000000000040000000000000000000000000000000000000000000000000000023337a2be0000000000000000000000000000000000000000000000000000000000000000010000000000000000000000000000000000000000000000000000000000000001",
        "nonce": "0x113",
        "chainId": "0x14a34"
      },
      "additionalContracts": [],
      "isFixedGasLimit": false
    },
    {
      "hash": "0xd3f38bbf575df51c37ee23975d155fc8b0695593f9f57626d9a5d322b3873ab8",
      "transactionType": "CALL",
      "contractName": null,
      "contractAddress": "0x674496fffc1ad1a11ef5b41c191fd7a698a0eb09",
      "function": "createOption(bool,uint256,uint256,uint256,uint256,uint256,uint256,uint64,uint8)",
      "arguments": [
        "false",
        "173000000000",
        "5451000000000",
        "1751299562",
        "1752336362",
        "9",
        "1179000000000",
        "1",
        "2"
      ],
      "transaction": {
        "from": "0xa8a7da49bf284f2e00fc8857464c1652095ca338",
        "to": "0x674496fffc1ad1a11ef5b41c191fd7a698a0eb09",
        "gas": "0x58038",
        "value": "0x0",
        "input": "0xc1f83e8d000000000000000000000000000000000000000000000000000000000000000000000000000000000000000000000000000000000000000000000028479a8200000000000000000000000000000000000000000000000000000004f528eb2e00000000000000000000000000000000000000000000000000000000006862b5ea00000000000000000000000000000000000000000000000000000000687287ea00000000000000000000000000000000000000000000000000000000000000090000000000000000000000000000000000000000000000000000011281e04e0000000000000000000000000000000000000000000000000000000000000000010000000000000000000000000000000000000000000000000000000000000002",
        "nonce": "0x114",
        "chainId": "0x14a34"
      },
      "additionalContracts": [],
      "isFixedGasLimit": false
    },
    {
      "hash": "0x3abd81b2d4a3c6108505e19585765448578ffd0b2c38fde315f2b37181028e9c",
      "transactionType": "CALL",
      "contractName": null,
      "contractAddress": "0x674496fffc1ad1a11ef5b41c191fd7a698a0eb09",
      "function": "createOption(bool,uint256,uint256,uint256,uint256,uint256,uint256,uint64,uint8)",
      "arguments": [
        "true",
        "433000000000",
        "6945000000000",
        "1751299562",
        "1752509162",
        "6",
        "2413000000000",
        "1",
        "0"
      ],
      "transaction": {
        "from": "0xa8a7da49bf284f2e00fc8857464c1652095ca338",
        "to": "0x674496fffc1ad1a11ef5b41c191fd7a698a0eb09",
        "gas": "0x514d0",
        "value": "0x0",
        "input": "0xc1f83e8d000000000000000000000000000000000000000000000000000000000000000100000000000000000000000000000000000000000000000000000064d0cfaa000000000000000000000000000000000000000000000000000000065102420a00000000000000000000000000000000000000000000000000000000006862b5ea0000000000000000000000000000000000000000000000000000000068752aea000000000000000000000000000000000000000000000000000000000000000600000000000000000000000000000000000000000000000000000231d202020000000000000000000000000000000000000000000000000000000000000000010000000000000000000000000000000000000000000000000000000000000000",
        "nonce": "0x115",
        "chainId": "0x14a34"
      },
      "additionalContracts": [],
      "isFixedGasLimit": false
    },
    {
      "hash": "0xbed8209f73da85c67b5712b023748c34d6bfbefae4dbc71c416076cf128a6ea0",
      "transactionType": "CALL",
      "contractName": null,
      "contractAddress": "0x674496fffc1ad1a11ef5b41c191fd7a698a0eb09",
      "function": "createOption(bool,uint256,uint256,uint256,uint256,uint256,uint256,uint64,uint8)",
      "arguments": [
        "true",
        "286000000000",
        "2215000000000",
        "1751213162",
        "1752077162",
        "1",
        "2915000000000",
        "1",
        "1"
      ],
      "transaction": {
        "from": "0xa8a7da49bf284f2e00fc8857464c1652095ca338",
        "to": "0x674496fffc1ad1a11ef5b41c191fd7a698a0eb09",
        "gas": "0x5803e",
        "value": "0x0",
        "input": "0xc1f83e8d00000000000000000000000000000000000000000000000000000000000000010000000000000000000000000000000000000000000000000000004296edac0000000000000000000000000000000000000000000000000000000203b849c600000000000000000000000000000000000000000000000000000000006861646a00000000000000000000000000000000000000000000000000000000686e936a0000000000000000000000000000000000000000000000000000000000000001000000000000000000000000000000000000000000000000000002a6b38a1e0000000000000000000000000000000000000000000000000000000000000000010000000000000000000000000000000000000000000000000000000000000001",
        "nonce": "0x116",
        "chainId": "0x14a34"
      },
      "additionalContracts": [],
      "isFixedGasLimit": false
    },
    {
      "hash": "0x92965ec56c2278aca0256b78db7fd1652c47546b642cb9f69c9e7cdd48a98959",
      "transactionType": "CALL",
      "contractName": null,
      "contractAddress": "0x674496fffc1ad1a11ef5b41c191fd7a698a0eb09",
      "function": "createOption(bool,uint256,uint256,uint256,uint256,uint256,uint256,uint64,uint8)",
      "arguments": [
        "false",
        "284000000000",
        "2300000000000",
        "1751299562",
        "1752336362",
        "2",
        "1445000000000",
        "2",
        "0"
      ],
      "transaction": {
        "from": "0xa8a7da49bf284f2e00fc8857464c1652095ca338",
        "to": "0x674496fffc1ad1a11ef5b41c191fd7a698a0eb09",
        "gas": "0x514c8",
        "value": "0x0",
        "input": "0xc1f83e8d0000000000000000000000000000000000000000000000000000000000000000000000000000000000000000000000000000000000000000000000421fb818000000000000000000000000000000000000000000000000000000021782aed800000000000000000000000000000000000000000000000000000000006862b5ea00000000000000000000000000000000000000000000000000000000687287ea00000000000000000000000000000000000000000000000000000000000000020000000000000000000000000000000000000000000000000000015070b6320000000000000000000000000000000000000000000000000000000000000000020000000000000000000000000000000000000000000000000000000000000000",
        "nonce": "0x117",
        "chainId": "0x14a34"
      },
      "additionalContracts": [],
      "isFixedGasLimit": false
    },
    {
      "hash": "0x4dcec40cdeba0573ceca32f8cb940e911e296185be7949f1aca06d9b28ffd8fd",
      "transactionType": "CALL",
      "contractName": null,
      "contractAddress": "0x674496fffc1ad1a11ef5b41c191fd7a698a0eb09",
      "function": "createOption(bool,uint256,uint256,uint256,uint256,uint256,uint256,uint64,uint8)",
      "arguments": [
        "true",
        "153000000000",
        "2314000000000",
        "1751213162",
        "1752509162",
        "6",
        "1344000000000",
        "2",
        "1"
      ],
      "transaction": {
        "from": "0xa8a7da49bf284f2e00fc8857464c1652095ca338",
        "to": "0x674496fffc1ad1a11ef5b41c191fd7a698a0eb09",
        "gas": "0x5803e",
        "value": "0x0",
        "input": "0xc1f83e8d0000000000000000000000000000000000000000000000000000000000000001000000000000000000000000000000000000000000000000000000239f82ba000000000000000000000000000000000000000000000000000000021ac525e400000000000000000000000000000000000000000000000000000000006861646a0000000000000000000000000000000000000000000000000000000068752aea000000000000000000000000000000000000000000000000000000000000000600000000000000000000000000000000000000000000000000000138eca4800000000000000000000000000000000000000000000000000000000000000000020000000000000000000000000000000000000000000000000000000000000001",
        "nonce": "0x118",
        "chainId": "0x14a34"
      },
      "additionalContracts": [],
      "isFixedGasLimit": false
    },
    {
      "hash": "0xf751e9bce3b84efb6b7ce946e5de7acfc235753f4e60f7ccfd64e167abe8abff",
      "transactionType": "CALL",
      "contractName": null,
      "contractAddress": "0x674496fffc1ad1a11ef5b41c191fd7a698a0eb09",
      "function": "createOption(bool,uint256,uint256,uint256,uint256,uint256,uint256,uint64,uint8)",
      "arguments": [
        "true",
        "266000000000",
        "5565000000000",
        "1751385962",
        "1752077162",
        "8",
        "1454000000000",
        "2",
        "2"
      ],
      "transaction": {
        "from": "0xa8a7da49bf284f2e00fc8857464c1652095ca338",
        "to": "0x674496fffc1ad1a11ef5b41c191fd7a698a0eb09",
        "gas": "0x5803e",
        "value": "0x0",
        "input": "0xc1f83e8d00000000000000000000000000000000000000000000000000000000000000010000000000000000000000000000000000000000000000000000003deed5e4000000000000000000000000000000000000000000000000000000050fb3d92200000000000000000000000000000000000000000000000000000000006864076a00000000000000000000000000000000000000000000000000000000686e936a00000000000000000000000000000000000000000000000000000000000000080000000000000000000000000000000000000000000000000000015289274c0000000000000000000000000000000000000000000000000000000000000000020000000000000000000000000000000000000000000000000000000000000002",
        "nonce": "0x119",
        "chainId": "0x14a34"
      },
      "additionalContracts": [],
      "isFixedGasLimit": false
    },
    {
      "hash": "0x297500633491ece888108235de43e8a28f41028a1d1d063d2068fba0ee21cdcf",
      "transactionType": "CALL",
      "contractName": null,
      "contractAddress": "0x674496fffc1ad1a11ef5b41c191fd7a698a0eb09",
      "function": "createOption(bool,uint256,uint256,uint256,uint256,uint256,uint256,uint64,uint8)",
      "arguments": [
        "true",
        "237000000000",
        "5911000000000",
        "1751472362",
        "1752163562",
        "10",
        "1789000000000",
        "2",
        "0"
      ],
      "transaction": {
        "from": "0xa8a7da49bf284f2e00fc8857464c1652095ca338",
        "to": "0x674496fffc1ad1a11ef5b41c191fd7a698a0eb09",
        "gas": "0x514d0",
        "value": "0x0",
        "input": "0xc1f83e8d0000000000000000000000000000000000000000000000000000000000000001000000000000000000000000000000000000000000000000000000372e4d020000000000000000000000000000000000000000000000000000000560430e260000000000000000000000000000000000000000000000000000000000686558ea00000000000000000000000000000000000000000000000000000000686fe4ea000000000000000000000000000000000000000000000000000000000000000a000000000000000000000000000000000000000000000000000001a088b5a20000000000000000000000000000000000000000000000000000000000000000020000000000000000000000000000000000000000000000000000000000000000",
        "nonce": "0x11a",
        "chainId": "0x14a34"
      },
      "additionalContracts": [],
      "isFixedGasLimit": false
    },
    {
      "hash": "0x7d5335705267b67cc1f21f0522c57116c27c596e059339de599076599a21646b",
      "transactionType": "CALL",
      "contractName": null,
      "contractAddress": "0x674496fffc1ad1a11ef5b41c191fd7a698a0eb09",
      "function": "createOption(bool,uint256,uint256,uint256,uint256,uint256,uint256,uint64,uint8)",
      "arguments": [
        "false",
        "187000000000",
        "3490000000000",
        "1751213162",
        "1752163562",
        "9",
        "1887000000000",
        "2",
        "1"
      ],
      "transaction": {
        "from": "0xa8a7da49bf284f2e00fc8857464c1652095ca338",
        "to": "0x674496fffc1ad1a11ef5b41c191fd7a698a0eb09",
        "gas": "0x58038",
        "value": "0x0",
        "input": "0xc1f83e8d00000000000000000000000000000000000000000000000000000000000000000000000000000000000000000000000000000000000000000000002b8a118e000000000000000000000000000000000000000000000000000000032c9435d400000000000000000000000000000000000000000000000000000000006861646a00000000000000000000000000000000000000000000000000000000686fe4ea0000000000000000000000000000000000000000000000000000000000000009000000000000000000000000000000000000000000000000000001b759f6f60000000000000000000000000000000000000000000000000000000000000000020000000000000000000000000000000000000000000000000000000000000001",
        "nonce": "0x11b",
        "chainId": "0x14a34"
      },
      "additionalContracts": [],
      "isFixedGasLimit": false
    }
  ],
  "receipts": [
    {
      "status": "0x1",
      "cumulativeGasUsed": "0x5522c0",
      "logs": [
        {
          "address": "0xc997288d1e971df9667dcb906cdbfd6fb4e50a7b",
          "topics": [
            "0xddf252ad1be2c89b69c2b068fc378daa952ba7f163c4a11628f55a4df523b3ef",
            "0x000000000000000000000000a8a7da49bf284f2e00fc8857464c1652095ca338",
            "0x000000000000000000000000674496fffc1ad1a11ef5b41c191fd7a698a0eb09"
          ],
          "data": "0x000000000000000000000000000000000000000000000000000002609e8a9c00",
          "blockHash": "0xbcd0e5eb45303ae9e59916a346b77c3e1490f9ed8029c3c778a23695ed4df40a",
          "blockNumber": "0x1a50898",
          "transactionHash": "0x3287f8f9fed2fa8b3c6c659360a360775bc28e5def48d369f489c788cd0a7c50",
          "transactionIndex": "0xf",
          "logIndex": "0xa3",
          "removed": false
        },
        {
          "address": "0x674496fffc1ad1a11ef5b41c191fd7a698a0eb09",
          "topics": [
            "0x153a309a1eed1eb4a96469bedfff0aa799c297f5e800da3c4c158e9157aed26a",
            "0x0000000000000000000000000000000000000000000000000000000000000014",
            "0x000000000000000000000000a8a7da49bf284f2e00fc8857464c1652095ca338"
          ],
          "data": "0x0000000000000000000000000000000000000000000000000000000000000001000000000000000000000000000000000000000000000000000000592c9436000000000000000000000000000000000000000000000000000000063942958e00000000000000000000000000000000000000000000000000000000006873d96a000000000000000000000000000000000000000000000000000000006866aa6a0000000000000000000000000000000000000000000000000000000000000002000000000000000000000000000000000000000000000000000001304f454e0000000000000000000000000000000000000000000000000000000000000000000000000000000000000000000000000000000000000000000000000000000000",
          "blockHash": "0xbcd0e5eb45303ae9e59916a346b77c3e1490f9ed8029c3c778a23695ed4df40a",
          "blockNumber": "0x1a50898",
          "transactionHash": "0x3287f8f9fed2fa8b3c6c659360a360775bc28e5def48d369f489c788cd0a7c50",
          "transactionIndex": "0xf",
          "logIndex": "0xa4",
          "removed": false
        }
      ],
      "logsBloom": "0x04000040000000000000000000000000000000000000000000000000000000000000000000000000000000000000000000002000008000000000000002000000000000000000000040000028000000000000000000000000000010000000000000000010000000000001000000000000000000000000000000000010000000000000000000000000000001000000000000000000000400000000000200000000000000000000000020000000000000000000020000000000000000000000000000000002000000001000000000000000000000040000000000000000000000100000000000000000000000000000000000000000000000000000000000000000",
      "type": "0x2",
      "transactionHash": "0x3287f8f9fed2fa8b3c6c659360a360775bc28e5def48d369f489c788cd0a7c50",
      "transactionIndex": "0xf",
      "blockHash": "0xbcd0e5eb45303ae9e59916a346b77c3e1490f9ed8029c3c778a23695ed4df40a",
      "blockNumber": "0x1a50898",
      "gasUsed": "0x3adb8",
      "effectiveGasPrice": "0xf429c",
      "from": "0xa8a7da49bf284f2e00fc8857464c1652095ca338",
      "to": "0x674496fffc1ad1a11ef5b41c191fd7a698a0eb09",
      "contractAddress": null,
      "l1BaseFeeScalar": "0x44d",
      "l1BlobBaseFee": "0x1",
      "l1BlobBaseFeeScalar": "0xa118b",
      "l1Fee": "0x10f2197",
      "l1GasPrice": "0x8356e2",
      "l1GasUsed": "0x752"
    },
    {
      "status": "0x1",
      "cumulativeGasUsed": "0x591e40",
      "logs": [
        {
          "address": "0xc997288d1e971df9667dcb906cdbfd6fb4e50a7b",
          "topics": [
            "0xddf252ad1be2c89b69c2b068fc378daa952ba7f163c4a11628f55a4df523b3ef",
            "0x000000000000000000000000a8a7da49bf284f2e00fc8857464c1652095ca338",
            "0x000000000000000000000000674496fffc1ad1a11ef5b41c191fd7a698a0eb09"
          ],
          "data": "0x0000000000000000000000000000000000000000000000000000076abbe0ce00",
          "blockHash": "0xbcd0e5eb45303ae9e59916a346b77c3e1490f9ed8029c3c778a23695ed4df40a",
          "blockNumber": "0x1a50898",
          "transactionHash": "0x2edbd79ec63c686102643f953af841286c2b71c48d751293553c7a75d2c5d9ff",
          "transactionIndex": "0x10",
          "logIndex": "0xa5",
          "removed": false
        },
        {
          "address": "0x674496fffc1ad1a11ef5b41c191fd7a698a0eb09",
          "topics": [
            "0x153a309a1eed1eb4a96469bedfff0aa799c297f5e800da3c4c158e9157aed26a",
            "0x0000000000000000000000000000000000000000000000000000000000000015",
            "0x000000000000000000000000a8a7da49bf284f2e00fc8857464c1652095ca338"
          ],
          "data": "0x000000000000000000000000000000000000000000000000000000000000000100000000000000000000000000000000000000000000000000000027d064ee0000000000000000000000000000000000000000000000000000000436efec8400000000000000000000000000000000000000000000000000000000006873d96a000000000000000000000000000000000000000000000000000000006864076a00000000000000000000000000000000000000000000000000000000000000070000000000000000000000000000000000000000000000000000010f3f69420000000000000000000000000000000000000000000000000000000000000000000000000000000000000000000000000000000000000000000000000000000001",
          "blockHash": "0xbcd0e5eb45303ae9e59916a346b77c3e1490f9ed8029c3c778a23695ed4df40a",
          "blockNumber": "0x1a50898",
          "transactionHash": "0x2edbd79ec63c686102643f953af841286c2b71c48d751293553c7a75d2c5d9ff",
          "transactionIndex": "0x10",
          "logIndex": "0xa6",
          "removed": false
        }
      ],
      "logsBloom": "0x04000040000000000000000000000000000000000000000000000000000000000000000000000000000000000000000000000000008000000000000002000000001000000000000040000028000000000000000000000000000010000000000000000010000000000001000000000000000000000000000000000010000000000000000000000000000001000000000000000000000000000000000200000000000000000000000000000000010000000000020000000000000000000000000000000002000000001000000000000000000000040000000000000000000000102000000000000000000000000000000000000000000000000000000000000000",
      "type": "0x2",
      "transactionHash": "0x2edbd79ec63c686102643f953af841286c2b71c48d751293553c7a75d2c5d9ff",
      "transactionIndex": "0x10",
      "blockHash": "0xbcd0e5eb45303ae9e59916a346b77c3e1490f9ed8029c3c778a23695ed4df40a",
      "blockNumber": "0x1a50898",
      "gasUsed": "0x3fb80",
      "effectiveGasPrice": "0xf429c",
      "from": "0xa8a7da49bf284f2e00fc8857464c1652095ca338",
      "to": "0x674496fffc1ad1a11ef5b41c191fd7a698a0eb09",
      "contractAddress": null,
      "l1BaseFeeScalar": "0x44d",
      "l1BlobBaseFee": "0x1",
      "l1BlobBaseFeeScalar": "0xa118b",
      "l1Fee": "0x111110e",
      "l1GasPrice": "0x8356e2",
      "l1GasUsed": "0x760"
    },
    {
      "status": "0x1",
      "cumulativeGasUsed": "0x9100bc",
      "logs": [
        {
          "address": "0xc997288d1e971df9667dcb906cdbfd6fb4e50a7b",
          "topics": [
            "0xddf252ad1be2c89b69c2b068fc378daa952ba7f163c4a11628f55a4df523b3ef",
            "0x000000000000000000000000a8a7da49bf284f2e00fc8857464c1652095ca338",
            "0x000000000000000000000000674496fffc1ad1a11ef5b41c191fd7a698a0eb09"
          ],
          "data": "0x00000000000000000000000000000000000000000000000000000114231bd400",
          "blockHash": "0xbcd0e5eb45303ae9e59916a346b77c3e1490f9ed8029c3c778a23695ed4df40a",
          "blockNumber": "0x1a50898",
          "transactionHash": "0x739de1f5d45191999abc0c80cd714f177fdce2cfc8e93c16f40e876a28eb11b9",
          "transactionIndex": "0x19",
          "logIndex": "0xf0",
          "removed": false
        },
        {
          "address": "0x674496fffc1ad1a11ef5b41c191fd7a698a0eb09",
          "topics": [
            "0x153a309a1eed1eb4a96469bedfff0aa799c297f5e800da3c4c158e9157aed26a",
            "0x0000000000000000000000000000000000000000000000000000000000000016",
            "0x000000000000000000000000a8a7da49bf284f2e00fc8857464c1652095ca338"
          ],
          "data": "0x00000000000000000000000000000000000000000000000000000000000000000000000000000000000000000000000000000000000000000000002ecc889a000000000000000000000000000000000000000000000000000000069628d6640000000000000000000000000000000000000000000000000000000000686fe4ea000000000000000000000000000000000000000000000000000000006866aa6a000000000000000000000000000000000000000000000000000000000000000100000000000000000000000000000000000000000000000000000114231bd40000000000000000000000000000000000000000000000000000000000000000000000000000000000000000000000000000000000000000000000000000000002",
          "blockHash": "0xbcd0e5eb45303ae9e59916a346b77c3e1490f9ed8029c3c778a23695ed4df40a",
          "blockNumber": "0x1a50898",
          "transactionHash": "0x739de1f5d45191999abc0c80cd714f177fdce2cfc8e93c16f40e876a28eb11b9",
          "transactionIndex": "0x19",
          "logIndex": "0xf1",
          "removed": false
        }
      ],
      "logsBloom": "0x04000040000000000000000000000000000000000000000000000000000000000000000000000000000000000000000000000000008000000000000002000000000000000000000840000028000000000000000000000000000010000000000000000010000000000001000000000000200000000000000000000010000000000000000000000000000001000000000000000000000000000000000200000000000000000000000000000000000000000000020000000000000000000000000000000002000000001000000000000000000000040000000000000000000000100000000000000000000000000000000000000000000000000008000000000000",
      "type": "0x2",
      "transactionHash": "0x739de1f5d45191999abc0c80cd714f177fdce2cfc8e93c16f40e876a28eb11b9",
      "transactionIndex": "0x19",
      "blockHash": "0xbcd0e5eb45303ae9e59916a346b77c3e1490f9ed8029c3c778a23695ed4df40a",
      "blockNumber": "0x1a50898",
      "gasUsed": "0x3fb7b",
      "effectiveGasPrice": "0xf429c",
      "from": "0xa8a7da49bf284f2e00fc8857464c1652095ca338",
      "to": "0x674496fffc1ad1a11ef5b41c191fd7a698a0eb09",
      "contractAddress": null,
      "l1BaseFeeScalar": "0x44d",
      "l1BlobBaseFee": "0x1",
      "l1BlobBaseFeeScalar": "0xa118b",
      "l1Fee": "0x1095335",
      "l1GasPrice": "0x8356e2",
      "l1GasUsed": "0x72a"
    },
    {
      "status": "0x1",
      "cumulativeGasUsed": "0x94ae6f",
      "logs": [
        {
          "address": "0xc997288d1e971df9667dcb906cdbfd6fb4e50a7b",
          "topics": [
            "0xddf252ad1be2c89b69c2b068fc378daa952ba7f163c4a11628f55a4df523b3ef",
            "0x000000000000000000000000a8a7da49bf284f2e00fc8857464c1652095ca338",
            "0x000000000000000000000000674496fffc1ad1a11ef5b41c191fd7a698a0eb09"
          ],
          "data": "0x00000000000000000000000000000000000000000000000000000a2bfa58e000",
          "blockHash": "0xbcd0e5eb45303ae9e59916a346b77c3e1490f9ed8029c3c778a23695ed4df40a",
          "blockNumber": "0x1a50898",
          "transactionHash": "0xeaaa557fca6fe169b4167979e3edc8b0adb02a8bcc05ae5fc970102a8046a080",
          "transactionIndex": "0x1a",
          "logIndex": "0xf2",
          "removed": false
        },
        {
          "address": "0x674496fffc1ad1a11ef5b41c191fd7a698a0eb09",
          "topics": [
            "0x153a309a1eed1eb4a96469bedfff0aa799c297f5e800da3c4c158e9157aed26a",
            "0x0000000000000000000000000000000000000000000000000000000000000017",
            "0x000000000000000000000000a8a7da49bf284f2e00fc8857464c1652095ca338"
          ],
          "data": "0x000000000000000000000000000000000000000000000000000000000000000000000000000000000000000000000000000000000000000000000045d964b80000000000000000000000000000000000000000000000000000000676f5d0a80000000000000000000000000000000000000000000000000000000000686fe4ea00000000000000000000000000000000000000000000000000000000686558ea00000000000000000000000000000000000000000000000000000000000000040000000000000000000000000000000000000000000000000000028afe96380000000000000000000000000000000000000000000000000000000000000000000000000000000000000000000000000000000000000000000000000000000000",
          "blockHash": "0xbcd0e5eb45303ae9e59916a346b77c3e1490f9ed8029c3c778a23695ed4df40a",
          "blockNumber": "0x1a50898",
          "transactionHash": "0xeaaa557fca6fe169b4167979e3edc8b0adb02a8bcc05ae5fc970102a8046a080",
          "transactionIndex": "0x1a",
          "logIndex": "0xf3",
          "removed": false
        }
      ],
      "logsBloom": "0x04000040000000000000000000000000000000000000000000000000000000000000000000000000000000000000000000001000008000000000001002000000000000000000000040000028000000000000000000000000000010000000000000000010000000000001000000000000000000000000000000000010000000000000000000000000000001000000000000000000000000000000000200000000000000000000000000000000000000000000020000000000000000000000000000000002000000001000000000000000000000040000000000000000000000100000000000000000000000000000000000000000000000000000000000080000",
      "type": "0x2",
      "transactionHash": "0xeaaa557fca6fe169b4167979e3edc8b0adb02a8bcc05ae5fc970102a8046a080",
      "transactionIndex": "0x1a",
      "blockHash": "0xbcd0e5eb45303ae9e59916a346b77c3e1490f9ed8029c3c778a23695ed4df40a",
      "blockNumber": "0x1a50898",
      "gasUsed": "0x3adb3",
      "effectiveGasPrice": "0xf429c",
      "from": "0xa8a7da49bf284f2e00fc8857464c1652095ca338",
      "to": "0x674496fffc1ad1a11ef5b41c191fd7a698a0eb09",
      "contractAddress": null,
      "l1BaseFeeScalar": "0x44d",
      "l1BlobBaseFee": "0x1",
      "l1BlobBaseFeeScalar": "0xa118b",
      "l1Fee": "0x1057448",
      "l1GasPrice": "0x8356e2",
      "l1GasUsed": "0x710"
    },
    {
      "status": "0x1",
      "cumulativeGasUsed": "0x98a9ea",
      "logs": [
        {
          "address": "0xc997288d1e971df9667dcb906cdbfd6fb4e50a7b",
          "topics": [
            "0xddf252ad1be2c89b69c2b068fc378daa952ba7f163c4a11628f55a4df523b3ef",
            "0x000000000000000000000000a8a7da49bf284f2e00fc8857464c1652095ca338",
            "0x000000000000000000000000674496fffc1ad1a11ef5b41c191fd7a698a0eb09"
          ],
          "data": "0x00000000000000000000000000000000000000000000000000000e6e52e60e00",
          "blockHash": "0xbcd0e5eb45303ae9e59916a346b77c3e1490f9ed8029c3c778a23695ed4df40a",
          "blockNumber": "0x1a50898",
          "transactionHash": "0xd767eb390d25a222b01da4464c09272476e90c483311693cb884198453485f99",
          "transactionIndex": "0x1b",
          "logIndex": "0xf4",
          "removed": false
        },
        {
          "address": "0x674496fffc1ad1a11ef5b41c191fd7a698a0eb09",
          "topics": [
            "0x153a309a1eed1eb4a96469bedfff0aa799c297f5e800da3c4c158e9157aed26a",
            "0x0000000000000000000000000000000000000000000000000000000000000018",
            "0x000000000000000000000000a8a7da49bf284f2e00fc8857464c1652095ca338"
          ],
          "data": "0x00000000000000000000000000000000000000000000000000000000000000000000000000000000000000000000000000000000000000000000004eedf97e000000000000000000000000000000000000000000000000000000028afe96380000000000000000000000000000000000000000000000000000000000686fe4ea000000000000000000000000000000000000000000000000000000006861646a00000000000000000000000000000000000000000000000000000000000000090000000000000000000000000000000000000000000000000000019a7afd1e0000000000000000000000000000000000000000000000000000000000000000000000000000000000000000000000000000000000000000000000000000000001",
          "blockHash": "0xbcd0e5eb45303ae9e59916a346b77c3e1490f9ed8029c3c778a23695ed4df40a",
          "blockNumber": "0x1a50898",
          "transactionHash": "0xd767eb390d25a222b01da4464c09272476e90c483311693cb884198453485f99",
          "transactionIndex": "0x1b",
          "logIndex": "0xf5",
          "removed": false
        }
      ],
      "logsBloom": "0x04000040000000000000000000000000000000000000000000000000000000000000000000000000000000000000000000000000008000000000000002000000000000000000000040000028000000000040000000000000000010000000000000000010000000000001000000000000000000000000000000000010000000000000000000000000000001000000000000000000000000000000000200000000000000000000000000000000000000000000020000000000000000000000000000100002000000001000000000000000000000040000000020000000000000100000000000000000000000000000000000000000000000000000000000000000",
      "type": "0x2",
      "transactionHash": "0xd767eb390d25a222b01da4464c09272476e90c483311693cb884198453485f99",
      "transactionIndex": "0x1b",
      "blockHash": "0xbcd0e5eb45303ae9e59916a346b77c3e1490f9ed8029c3c778a23695ed4df40a",
      "blockNumber": "0x1a50898",
      "gasUsed": "0x3fb7b",
      "effectiveGasPrice": "0xf429c",
      "from": "0xa8a7da49bf284f2e00fc8857464c1652095ca338",
      "to": "0x674496fffc1ad1a11ef5b41c191fd7a698a0eb09",
      "contractAddress": null,
      "l1BaseFeeScalar": "0x44d",
      "l1BlobBaseFee": "0x1",
      "l1BlobBaseFeeScalar": "0xa118b",
      "l1Fee": "0x1095335",
      "l1GasPrice": "0x8356e2",
      "l1GasUsed": "0x72a"
    },
    {
      "status": "0x1",
      "cumulativeGasUsed": "0x9c57a2",
      "logs": [
        {
          "address": "0xc997288d1e971df9667dcb906cdbfd6fb4e50a7b",
          "topics": [
            "0xddf252ad1be2c89b69c2b068fc378daa952ba7f163c4a11628f55a4df523b3ef",
            "0x000000000000000000000000a8a7da49bf284f2e00fc8857464c1652095ca338",
            "0x000000000000000000000000674496fffc1ad1a11ef5b41c191fd7a698a0eb09"
          ],
          "data": "0x000000000000000000000000000000000000000000000000000001e714eab800",
          "blockHash": "0xbcd0e5eb45303ae9e59916a346b77c3e1490f9ed8029c3c778a23695ed4df40a",
          "blockNumber": "0x1a50898",
          "transactionHash": "0x381ddaa09544e966d07991e1cfc425070fccfa16724af93bf86b5b6068c91be0",
          "transactionIndex": "0x1c",
          "logIndex": "0xf6",
          "removed": false
        },
        {
          "address": "0x674496fffc1ad1a11ef5b41c191fd7a698a0eb09",
          "topics": [
            "0x153a309a1eed1eb4a96469bedfff0aa799c297f5e800da3c4c158e9157aed26a",
            "0x0000000000000000000000000000000000000000000000000000000000000019",
            "0x000000000000000000000000a8a7da49bf284f2e00fc8857464c1652095ca338"
          ],
          "data": "0x000000000000000000000000000000000000000000000000000000000000000100000000000000000000000000000000000000000000000000000035c8ac4600000000000000000000000000000000000000000000000000000005ba99a84e0000000000000000000000000000000000000000000000000000000000686e936a000000000000000000000000000000000000000000000000000000006862b5ea0000000000000000000000000000000000000000000000000000000000000002000000000000000000000000000000000000000000000000000000f38a755c0000000000000000000000000000000000000000000000000000000000000000010000000000000000000000000000000000000000000000000000000000000000",
          "blockHash": "0xbcd0e5eb45303ae9e59916a346b77c3e1490f9ed8029c3c778a23695ed4df40a",
          "blockNumber": "0x1a50898",
          "transactionHash": "0x381ddaa09544e966d07991e1cfc425070fccfa16724af93bf86b5b6068c91be0",
          "transactionIndex": "0x1c",
          "logIndex": "0xf7",
          "removed": false
        }
      ],
      "logsBloom": "0x04000040000000000000000000000000000000000000000000000000000000000000000000000000000000000000000000000000008000800000000002000000000000000000000040000028000000000000000000000000000010000000000000000010000000000001000000000000000000000000020000000010000000000000000000000000000001000000000000000000000000000000000200000000000000000000000000000000000000000000020000000000000000000000000000000002000000001000000000000000000000040000000000000000000000100000000000000000000000000000000000000000000000000000008000000000",
      "type": "0x2",
      "transactionHash": "0x381ddaa09544e966d07991e1cfc425070fccfa16724af93bf86b5b6068c91be0",
      "transactionIndex": "0x1c",
      "blockHash": "0xbcd0e5eb45303ae9e59916a346b77c3e1490f9ed8029c3c778a23695ed4df40a",
      "blockNumber": "0x1a50898",
      "gasUsed": "0x3adb8",
      "effectiveGasPrice": "0xf429c",
      "from": "0xa8a7da49bf284f2e00fc8857464c1652095ca338",
      "to": "0x674496fffc1ad1a11ef5b41c191fd7a698a0eb09",
      "contractAddress": null,
      "l1BaseFeeScalar": "0x44d",
      "l1BlobBaseFee": "0x1",
      "l1BlobBaseFeeScalar": "0xa118b",
      "l1Fee": "0x118cee6",
      "l1GasPrice": "0x8356e2",
      "l1GasUsed": "0x795"
    },
    {
      "status": "0x1",
      "cumulativeGasUsed": "0xa0532e",
      "logs": [
        {
          "address": "0xc997288d1e971df9667dcb906cdbfd6fb4e50a7b",
          "topics": [
            "0xddf252ad1be2c89b69c2b068fc378daa952ba7f163c4a11628f55a4df523b3ef",
            "0x000000000000000000000000a8a7da49bf284f2e00fc8857464c1652095ca338",
            "0x000000000000000000000000674496fffc1ad1a11ef5b41c191fd7a698a0eb09"
          ],
          "data": "0x000000000000000000000000000000000000000000000000000008ccde8af800",
          "blockHash": "0xbcd0e5eb45303ae9e59916a346b77c3e1490f9ed8029c3c778a23695ed4df40a",
          "blockNumber": "0x1a50898",
          "transactionHash": "0xfc9abfc6c633fbcecb139daa87fba75fc952fdccb97e51d9449244abb286b0bb",
          "transactionIndex": "0x1d",
          "logIndex": "0xf8",
          "removed": false
        },
        {
          "address": "0x674496fffc1ad1a11ef5b41c191fd7a698a0eb09",
          "topics": [
            "0x153a309a1eed1eb4a96469bedfff0aa799c297f5e800da3c4c158e9157aed26a",
            "0x000000000000000000000000000000000000000000000000000000000000001a",
            "0x000000000000000000000000a8a7da49bf284f2e00fc8857464c1652095ca338"
          ],
          "data": "0x00000000000000000000000000000000000000000000000000000000000000010000000000000000000000000000000000000000000000000000004e76c3ea000000000000000000000000000000000000000000000000000000064fd83c180000000000000000000000000000000000000000000000000000000000687287ea000000000000000000000000000000000000000000000000000000006862b5ea00000000000000000000000000000000000000000000000000000000000000040000000000000000000000000000000000000000000000000000023337a2be0000000000000000000000000000000000000000000000000000000000000000010000000000000000000000000000000000000000000000000000000000000001",
          "blockHash": "0xbcd0e5eb45303ae9e59916a346b77c3e1490f9ed8029c3c778a23695ed4df40a",
          "blockNumber": "0x1a50898",
          "transactionHash": "0xfc9abfc6c633fbcecb139daa87fba75fc952fdccb97e51d9449244abb286b0bb",
          "transactionIndex": "0x1d",
          "logIndex": "0xf9",
          "removed": false
        }
      ],
      "logsBloom": "0x04000040000000000000000000000000000000000000000000000000000000000000000000000000000000000000000000000000008000000000000002000000000000000000000040000028000000001000000000000000000010001000000000000010000000000001000000000000000000000000000000000010000000000000000000000000000001000000000000000000000000000000000200000000000000000000000000000000000000000000020000000000000000000000000000000002000000001000000000000000000000040000000000000000000000100000000000000000000000000000000000000000000004000000000000000000",
      "type": "0x2",
      "transactionHash": "0xfc9abfc6c633fbcecb139daa87fba75fc952fdccb97e51d9449244abb286b0bb",
      "transactionIndex": "0x1d",
      "blockHash": "0xbcd0e5eb45303ae9e59916a346b77c3e1490f9ed8029c3c778a23695ed4df40a",
      "blockNumber": "0x1a50898",
      "gasUsed": "0x3fb8c",
      "effectiveGasPrice": "0xf429c",
      "from": "0xa8a7da49bf284f2e00fc8857464c1652095ca338",
      "to": "0x674496fffc1ad1a11ef5b41c191fd7a698a0eb09",
      "contractAddress": null,
      "l1BaseFeeScalar": "0x44d",
      "l1BlobBaseFee": "0x1",
      "l1BlobBaseFeeScalar": "0xa118b",
      "l1Fee": "0x116df70",
      "l1GasPrice": "0x8356e2",
      "l1GasUsed": "0x788"
    },
    {
      "status": "0x1",
      "cumulativeGasUsed": "0xa44eb5",
      "logs": [
        {
          "address": "0xc997288d1e971df9667dcb906cdbfd6fb4e50a7b",
          "topics": [
            "0xddf252ad1be2c89b69c2b068fc378daa952ba7f163c4a11628f55a4df523b3ef",
            "0x000000000000000000000000a8a7da49bf284f2e00fc8857464c1652095ca338",
            "0x000000000000000000000000674496fffc1ad1a11ef5b41c191fd7a698a0eb09"
          ],
          "data": "0x000000000000000000000000000000000000000000000000000009a690e2be00",
          "blockHash": "0xbcd0e5eb45303ae9e59916a346b77c3e1490f9ed8029c3c778a23695ed4df40a",
          "blockNumber": "0x1a50898",
          "transactionHash": "0xd3f38bbf575df51c37ee23975d155fc8b0695593f9f57626d9a5d322b3873ab8",
          "transactionIndex": "0x1e",
          "logIndex": "0xfa",
          "removed": false
        },
        {
          "address": "0x674496fffc1ad1a11ef5b41c191fd7a698a0eb09",
          "topics": [
            "0x153a309a1eed1eb4a96469bedfff0aa799c297f5e800da3c4c158e9157aed26a",
            "0x000000000000000000000000000000000000000000000000000000000000001b",
            "0x000000000000000000000000a8a7da49bf284f2e00fc8857464c1652095ca338"
          ],
          "data": "0x000000000000000000000000000000000000000000000000000000000000000000000000000000000000000000000000000000000000000000000028479a8200000000000000000000000000000000000000000000000000000004f528eb2e0000000000000000000000000000000000000000000000000000000000687287ea000000000000000000000000000000000000000000000000000000006862b5ea00000000000000000000000000000000000000000000000000000000000000090000000000000000000000000000000000000000000000000000011281e04e0000000000000000000000000000000000000000000000000000000000000000010000000000000000000000000000000000000000000000000000000000000002",
          "blockHash": "0xbcd0e5eb45303ae9e59916a346b77c3e1490f9ed8029c3c778a23695ed4df40a",
          "blockNumber": "0x1a50898",
          "transactionHash": "0xd3f38bbf575df51c37ee23975d155fc8b0695593f9f57626d9a5d322b3873ab8",
          "transactionIndex": "0x1e",
          "logIndex": "0xfb",
          "removed": false
        }
      ],
      "logsBloom": "0x04000040000000000000000000000000000000000010000000000000000000000000000000000000000000000000000000000000008000000000000002000000000000000000000040000028000000000000000000000000000010000000000000000010000000000001000000000000000000000000000000000010000000000000000000000000000001000000000000000000000000000000000200000000000000000100000000000000000000000000020000008000000000000000000000000002000000001000000000000000000000040000000000000000000000100000000000000000000000000000000000000000000000000000000000000000",
      "type": "0x2",
      "transactionHash": "0xd3f38bbf575df51c37ee23975d155fc8b0695593f9f57626d9a5d322b3873ab8",
      "transactionIndex": "0x1e",
      "blockHash": "0xbcd0e5eb45303ae9e59916a346b77c3e1490f9ed8029c3c778a23695ed4df40a",
      "blockNumber": "0x1a50898",
      "gasUsed": "0x3fb87",
      "effectiveGasPrice": "0xf429c",
      "from": "0xa8a7da49bf284f2e00fc8857464c1652095ca338",
      "to": "0x674496fffc1ad1a11ef5b41c191fd7a698a0eb09",
      "contractAddress": null,
      "l1BaseFeeScalar": "0x44d",
      "l1BlobBaseFee": "0x1",
      "l1BlobBaseFeeScalar": "0xa118b",
      "l1Fee": "0x116df70",
      "l1GasPrice": "0x8356e2",
      "l1GasUsed": "0x788"
    },
    {
      "status": "0x1",
      "cumulativeGasUsed": "0xa7fc79",
      "logs": [
        {
          "address": "0xc997288d1e971df9667dcb906cdbfd6fb4e50a7b",
          "topics": [
            "0xddf252ad1be2c89b69c2b068fc378daa952ba7f163c4a11628f55a4df523b3ef",
            "0x000000000000000000000000a8a7da49bf284f2e00fc8857464c1652095ca338",
            "0x000000000000000000000000674496fffc1ad1a11ef5b41c191fd7a698a0eb09"
          ],
          "data": "0x00000000000000000000000000000000000000000000000000000d2aec0c0c00",
          "blockHash": "0xbcd0e5eb45303ae9e59916a346b77c3e1490f9ed8029c3c778a23695ed4df40a",
          "blockNumber": "0x1a50898",
          "transactionHash": "0x3abd81b2d4a3c6108505e19585765448578ffd0b2c38fde315f2b37181028e9c",
          "transactionIndex": "0x1f",
          "logIndex": "0xfc",
          "removed": false
        },
        {
          "address": "0x674496fffc1ad1a11ef5b41c191fd7a698a0eb09",
          "topics": [
            "0x153a309a1eed1eb4a96469bedfff0aa799c297f5e800da3c4c158e9157aed26a",
            "0x000000000000000000000000000000000000000000000000000000000000001c",
            "0x000000000000000000000000a8a7da49bf284f2e00fc8857464c1652095ca338"
          ],
          "data": "0x000000000000000000000000000000000000000000000000000000000000000100000000000000000000000000000000000000000000000000000064d0cfaa000000000000000000000000000000000000000000000000000000065102420a000000000000000000000000000000000000000000000000000000000068752aea000000000000000000000000000000000000000000000000000000006862b5ea000000000000000000000000000000000000000000000000000000000000000600000000000000000000000000000000000000000000000000000231d202020000000000000000000000000000000000000000000000000000000000000000010000000000000000000000000000000000000000000000000000000000000000",
          "blockHash": "0xbcd0e5eb45303ae9e59916a346b77c3e1490f9ed8029c3c778a23695ed4df40a",
          "blockNumber": "0x1a50898",
          "transactionHash": "0x3abd81b2d4a3c6108505e19585765448578ffd0b2c38fde315f2b37181028e9c",
          "transactionIndex": "0x1f",
          "logIndex": "0xfd",
          "removed": false
        }
      ],
      "logsBloom": "0x04000040000000000000000000000000000000000000000000000000000000000000000000000000000000000000000000000000008000200000000002000000000000000000000040000028000000000000000000000000000010000000000000000010000000000001000000000000000000000000000000000010000000000000000000000000000001000000000200000000000000000000000200000000000000000000000000000002000000000000020000000000000000000000000000000002000000001000000000000000000000040000000000000000000000100000000000000000000000000000000000000000000000000000000000000000",
      "type": "0x2",
      "transactionHash": "0x3abd81b2d4a3c6108505e19585765448578ffd0b2c38fde315f2b37181028e9c",
      "transactionIndex": "0x1f",
      "blockHash": "0xbcd0e5eb45303ae9e59916a346b77c3e1490f9ed8029c3c778a23695ed4df40a",
      "blockNumber": "0x1a50898",
      "gasUsed": "0x3adc4",
      "effectiveGasPrice": "0xf429c",
      "from": "0xa8a7da49bf284f2e00fc8857464c1652095ca338",
      "to": "0x674496fffc1ad1a11ef5b41c191fd7a698a0eb09",
      "contractAddress": null,
      "l1BaseFeeScalar": "0x44d",
      "l1BlobBaseFee": "0x1",
      "l1BlobBaseFeeScalar": "0xa118b",
      "l1Fee": "0x118cee6",
      "l1GasPrice": "0x8356e2",
      "l1GasUsed": "0x795"
    },
    {
      "status": "0x1",
      "cumulativeGasUsed": "0xaf9acf",
      "logs": [
        {
          "address": "0xc997288d1e971df9667dcb906cdbfd6fb4e50a7b",
          "topics": [
            "0xddf252ad1be2c89b69c2b068fc378daa952ba7f163c4a11628f55a4df523b3ef",
            "0x000000000000000000000000a8a7da49bf284f2e00fc8857464c1652095ca338",
            "0x000000000000000000000000674496fffc1ad1a11ef5b41c191fd7a698a0eb09"
          ],
          "data": "0x000000000000000000000000000000000000000000000000000002a6b38a1e00",
          "blockHash": "0xbcd0e5eb45303ae9e59916a346b77c3e1490f9ed8029c3c778a23695ed4df40a",
          "blockNumber": "0x1a50898",
          "transactionHash": "0xbed8209f73da85c67b5712b023748c34d6bfbefae4dbc71c416076cf128a6ea0",
          "transactionIndex": "0x21",
          "logIndex": "0x109",
          "removed": false
        },
        {
          "address": "0x674496fffc1ad1a11ef5b41c191fd7a698a0eb09",
          "topics": [
            "0x153a309a1eed1eb4a96469bedfff0aa799c297f5e800da3c4c158e9157aed26a",
            "0x000000000000000000000000000000000000000000000000000000000000001d",
            "0x000000000000000000000000a8a7da49bf284f2e00fc8857464c1652095ca338"
          ],
          "data": "0x00000000000000000000000000000000000000000000000000000000000000010000000000000000000000000000000000000000000000000000004296edac0000000000000000000000000000000000000000000000000000000203b849c60000000000000000000000000000000000000000000000000000000000686e936a000000000000000000000000000000000000000000000000000000006861646a0000000000000000000000000000000000000000000000000000000000000001000000000000000000000000000000000000000000000000000002a6b38a1e0000000000000000000000000000000000000000000000000000000000000000010000000000000000000000000000000000000000000000000000000000000001",
          "blockHash": "0xbcd0e5eb45303ae9e59916a346b77c3e1490f9ed8029c3c778a23695ed4df40a",
          "blockNumber": "0x1a50898",
          "transactionHash": "0xbed8209f73da85c67b5712b023748c34d6bfbefae4dbc71c416076cf128a6ea0",
          "transactionIndex": "0x21",
          "logIndex": "0x10a",
          "removed": false
        }
      ],
      "logsBloom": "0x040000c0000000000000000000000000000000000000000000000000000000000000000000000000000000000000000000000000008000000000000202000000000000000000000040000028000000000000000000000010000010000000000000000010000000000001000000000000000000000000000000000010000000000000000000000000000001000000000000000000000000000000000200000000000000000000000000000000000000000000020000000000000000000000000000000002000000001000000000000000000000040000000000000000000000100000000000000000000000000000000000000000000000000000000000000000",
      "type": "0x2",
      "transactionHash": "0xbed8209f73da85c67b5712b023748c34d6bfbefae4dbc71c416076cf128a6ea0",
      "transactionIndex": "0x21",
      "blockHash": "0xbcd0e5eb45303ae9e59916a346b77c3e1490f9ed8029c3c778a23695ed4df40a",
      "blockNumber": "0x1a50898",
      "gasUsed": "0x3fb8c",
      "effectiveGasPrice": "0xf429c",
      "from": "0xa8a7da49bf284f2e00fc8857464c1652095ca338",
      "to": "0x674496fffc1ad1a11ef5b41c191fd7a698a0eb09",
      "contractAddress": null,
      "l1BaseFeeScalar": "0x44d",
      "l1BlobBaseFee": "0x1",
      "l1BlobBaseFeeScalar": "0xa118b",
      "l1Fee": "0x111110e",
      "l1GasPrice": "0x8356e2",
      "l1GasUsed": "0x760"
    },
    {
      "status": "0x1",
      "cumulativeGasUsed": "0xb740ef",
      "logs": [
        {
          "address": "0xc997288d1e971df9667dcb906cdbfd6fb4e50a7b",
          "topics": [
            "0xddf252ad1be2c89b69c2b068fc378daa952ba7f163c4a11628f55a4df523b3ef",
            "0x000000000000000000000000a8a7da49bf284f2e00fc8857464c1652095ca338",
            "0x000000000000000000000000674496fffc1ad1a11ef5b41c191fd7a698a0eb09"
          ],
          "data": "0x000000000000000000000000000000000000000000000000000002a0e16c6400",
          "blockHash": "0xbcd0e5eb45303ae9e59916a346b77c3e1490f9ed8029c3c778a23695ed4df40a",
          "blockNumber": "0x1a50898",
          "transactionHash": "0x92965ec56c2278aca0256b78db7fd1652c47546b642cb9f69c9e7cdd48a98959",
          "transactionIndex": "0x23",
          "logIndex": "0x115",
          "removed": false
        },
        {
          "address": "0x674496fffc1ad1a11ef5b41c191fd7a698a0eb09",
          "topics": [
            "0x153a309a1eed1eb4a96469bedfff0aa799c297f5e800da3c4c158e9157aed26a",
            "0x000000000000000000000000000000000000000000000000000000000000001e",
            "0x000000000000000000000000a8a7da49bf284f2e00fc8857464c1652095ca338"
          ],
          "data": "0x0000000000000000000000000000000000000000000000000000000000000000000000000000000000000000000000000000000000000000000000421fb818000000000000000000000000000000000000000000000000000000021782aed80000000000000000000000000000000000000000000000000000000000687287ea000000000000000000000000000000000000000000000000000000006862b5ea00000000000000000000000000000000000000000000000000000000000000020000000000000000000000000000000000000000000000000000015070b6320000000000000000000000000000000000000000000000000000000000000000020000000000000000000000000000000000000000000000000000000000000000",
          "blockHash": "0xbcd0e5eb45303ae9e59916a346b77c3e1490f9ed8029c3c778a23695ed4df40a",
          "blockNumber": "0x1a50898",
          "transactionHash": "0x92965ec56c2278aca0256b78db7fd1652c47546b642cb9f69c9e7cdd48a98959",
          "transactionIndex": "0x23",
          "logIndex": "0x116",
          "removed": false
        }
      ],
      "logsBloom": "0x04000040000000000000000000000000000000000000000000000000000000000000000000000000000000000400000000000000008000000000000002000000000000000000008040000028000000000000000000000000000010000000000000000010000000000001000000000000000000000000000000000010000000000000000000000000000001000000000000000000000000000000000200000000000000000000000000000000000000000000020000000000000000000000000000000002000000001000000000000000000000040000000000000000000000100000000000000000080000000000000000000000000000000000000000000000",
      "type": "0x2",
      "transactionHash": "0x92965ec56c2278aca0256b78db7fd1652c47546b642cb9f69c9e7cdd48a98959",
      "transactionIndex": "0x23",
      "blockHash": "0xbcd0e5eb45303ae9e59916a346b77c3e1490f9ed8029c3c778a23695ed4df40a",
      "blockNumber": "0x1a50898",
      "gasUsed": "0x3adbf",
      "effectiveGasPrice": "0xf429c",
      "from": "0xa8a7da49bf284f2e00fc8857464c1652095ca338",
      "to": "0x674496fffc1ad1a11ef5b41c191fd7a698a0eb09",
      "contractAddress": null,
      "l1BaseFeeScalar": "0x44d",
      "l1BlobBaseFee": "0x1",
      "l1BlobBaseFeeScalar": "0xa118b",
      "l1Fee": "0x10f2197",
      "l1GasPrice": "0x8356e2",
      "l1GasUsed": "0x752"
    },
    {
      "status": "0x1",
      "cumulativeGasUsed": "0xbb3c7b",
      "logs": [
        {
          "address": "0xc997288d1e971df9667dcb906cdbfd6fb4e50a7b",
          "topics": [
            "0xddf252ad1be2c89b69c2b068fc378daa952ba7f163c4a11628f55a4df523b3ef",
            "0x000000000000000000000000a8a7da49bf284f2e00fc8857464c1652095ca338",
            "0x000000000000000000000000674496fffc1ad1a11ef5b41c191fd7a698a0eb09"
          ],
          "data": "0x000000000000000000000000000000000000000000000000000007558bdb0000",
          "blockHash": "0xbcd0e5eb45303ae9e59916a346b77c3e1490f9ed8029c3c778a23695ed4df40a",
          "blockNumber": "0x1a50898",
          "transactionHash": "0x4dcec40cdeba0573ceca32f8cb940e911e296185be7949f1aca06d9b28ffd8fd",
          "transactionIndex": "0x24",
          "logIndex": "0x117",
          "removed": false
        },
        {
          "address": "0x674496fffc1ad1a11ef5b41c191fd7a698a0eb09",
          "topics": [
            "0x153a309a1eed1eb4a96469bedfff0aa799c297f5e800da3c4c158e9157aed26a",
            "0x000000000000000000000000000000000000000000000000000000000000001f",
            "0x000000000000000000000000a8a7da49bf284f2e00fc8857464c1652095ca338"
          ],
          "data": "0x0000000000000000000000000000000000000000000000000000000000000001000000000000000000000000000000000000000000000000000000239f82ba000000000000000000000000000000000000000000000000000000021ac525e4000000000000000000000000000000000000000000000000000000000068752aea000000000000000000000000000000000000000000000000000000006861646a000000000000000000000000000000000000000000000000000000000000000600000000000000000000000000000000000000000000000000000138eca4800000000000000000000000000000000000000000000000000000000000000000020000000000000000000000000000000000000000000000000000000000000001",
          "blockHash": "0xbcd0e5eb45303ae9e59916a346b77c3e1490f9ed8029c3c778a23695ed4df40a",
          "blockNumber": "0x1a50898",
          "transactionHash": "0x4dcec40cdeba0573ceca32f8cb940e911e296185be7949f1aca06d9b28ffd8fd",
          "transactionIndex": "0x24",
          "logIndex": "0x118",
          "removed": false
        }
      ],
      "logsBloom": "0x04000040000000000000000400000000000000000000000000000000000000000000000000000000000000000000000000000000008000000000000002000000000000000000000040000028000000000000000000000000000010000000000000000010000000000001000000000000000000000000000000000010000000000000000000000000000001000000000000000000000000000000000200000000000000000000000000000000000000000000020000000000000000000001000000000002000000001000000000000000000000040000000000000000000000100000000000000000000000000000000000000000000000000100000000000000",
      "type": "0x2",
      "transactionHash": "0x4dcec40cdeba0573ceca32f8cb940e911e296185be7949f1aca06d9b28ffd8fd",
      "transactionIndex": "0x24",
      "blockHash": "0xbcd0e5eb45303ae9e59916a346b77c3e1490f9ed8029c3c778a23695ed4df40a",
      "blockNumber": "0x1a50898",
      "gasUsed": "0x3fb8c",
      "effectiveGasPrice": "0xf429c",
      "from": "0xa8a7da49bf284f2e00fc8857464c1652095ca338",
      "to": "0x674496fffc1ad1a11ef5b41c191fd7a698a0eb09",
      "contractAddress": null,
      "l1BaseFeeScalar": "0x44d",
      "l1BlobBaseFee": "0x1",
      "l1BlobBaseFeeScalar": "0xa118b",
      "l1Fee": "0x1227c35",
      "l1GasPrice": "0x8356e2",
      "l1GasUsed": "0x7d8"
    },
    {
      "status": "0x1",
      "cumulativeGasUsed": "0xbf3807",
      "logs": [
        {
          "address": "0xc997288d1e971df9667dcb906cdbfd6fb4e50a7b",
          "topics": [
            "0xddf252ad1be2c89b69c2b068fc378daa952ba7f163c4a11628f55a4df523b3ef",
            "0x000000000000000000000000a8a7da49bf284f2e00fc8857464c1652095ca338",
            "0x000000000000000000000000674496fffc1ad1a11ef5b41c191fd7a698a0eb09"
          ],
          "data": "0x00000000000000000000000000000000000000000000000000000a94493a6000",
          "blockHash": "0xbcd0e5eb45303ae9e59916a346b77c3e1490f9ed8029c3c778a23695ed4df40a",
          "blockNumber": "0x1a50898",
          "transactionHash": "0xf751e9bce3b84efb6b7ce946e5de7acfc235753f4e60f7ccfd64e167abe8abff",
          "transactionIndex": "0x25",
          "logIndex": "0x119",
          "removed": false
        },
        {
          "address": "0x674496fffc1ad1a11ef5b41c191fd7a698a0eb09",
          "topics": [
            "0x153a309a1eed1eb4a96469bedfff0aa799c297f5e800da3c4c158e9157aed26a",
            "0x0000000000000000000000000000000000000000000000000000000000000020",
            "0x000000000000000000000000a8a7da49bf284f2e00fc8857464c1652095ca338"
          ],
          "data": "0x00000000000000000000000000000000000000000000000000000000000000010000000000000000000000000000000000000000000000000000003deed5e4000000000000000000000000000000000000000000000000000000050fb3d9220000000000000000000000000000000000000000000000000000000000686e936a000000000000000000000000000000000000000000000000000000006864076a00000000000000000000000000000000000000000000000000000000000000080000000000000000000000000000000000000000000000000000015289274c0000000000000000000000000000000000000000000000000000000000000000020000000000000000000000000000000000000000000000000000000000000002",
          "blockHash": "0xbcd0e5eb45303ae9e59916a346b77c3e1490f9ed8029c3c778a23695ed4df40a",
          "blockNumber": "0x1a50898",
          "transactionHash": "0xf751e9bce3b84efb6b7ce946e5de7acfc235753f4e60f7ccfd64e167abe8abff",
          "transactionIndex": "0x25",
          "logIndex": "0x11a",
          "removed": false
        }
      ],
      "logsBloom": "0x04000040000000000000000000000000000000000000000000000000000000000000000000000000000000000000000000000000008000000000000002000000000000000000000040000028000000000000000000000000000010000000000000000010000000000001000000000000000000000000000000000010000000000000000000000000000001000000000000000000000000000000000200000000000400000000000000000000000000000000020000000000000000000000000000000002000000001000000000000000080000040000000000000000000000100000400000000000000000000000000000000000000000000000000000000000",
      "type": "0x2",
      "transactionHash": "0xf751e9bce3b84efb6b7ce946e5de7acfc235753f4e60f7ccfd64e167abe8abff",
      "transactionIndex": "0x25",
      "blockHash": "0xbcd0e5eb45303ae9e59916a346b77c3e1490f9ed8029c3c778a23695ed4df40a",
      "blockNumber": "0x1a50898",
      "gasUsed": "0x3fb8c",
      "effectiveGasPrice": "0xf429c",
      "from": "0xa8a7da49bf284f2e00fc8857464c1652095ca338",
      "to": "0x674496fffc1ad1a11ef5b41c191fd7a698a0eb09",
      "contractAddress": null,
      "l1BaseFeeScalar": "0x44d",
      "l1BlobBaseFee": "0x1",
      "l1BlobBaseFeeScalar": "0xa118b",
      "l1Fee": "0x1208cbf",
      "l1GasPrice": "0x8356e2",
      "l1GasUsed": "0x7cb"
    },
    {
      "status": "0x1",
      "cumulativeGasUsed": "0xc2e5cb",
      "logs": [
        {
          "address": "0xc997288d1e971df9667dcb906cdbfd6fb4e50a7b",
          "topics": [
            "0xddf252ad1be2c89b69c2b068fc378daa952ba7f163c4a11628f55a4df523b3ef",
            "0x000000000000000000000000a8a7da49bf284f2e00fc8857464c1652095ca338",
            "0x000000000000000000000000674496fffc1ad1a11ef5b41c191fd7a698a0eb09"
          ],
          "data": "0x0000000000000000000000000000000000000000000000000000104557185400",
          "blockHash": "0xbcd0e5eb45303ae9e59916a346b77c3e1490f9ed8029c3c778a23695ed4df40a",
          "blockNumber": "0x1a50898",
          "transactionHash": "0x297500633491ece888108235de43e8a28f41028a1d1d063d2068fba0ee21cdcf",
          "transactionIndex": "0x26",
          "logIndex": "0x11b",
          "removed": false
        },
        {
          "address": "0x674496fffc1ad1a11ef5b41c191fd7a698a0eb09",
          "topics": [
            "0x153a309a1eed1eb4a96469bedfff0aa799c297f5e800da3c4c158e9157aed26a",
            "0x0000000000000000000000000000000000000000000000000000000000000021",
            "0x000000000000000000000000a8a7da49bf284f2e00fc8857464c1652095ca338"
          ],
          "data": "0x0000000000000000000000000000000000000000000000000000000000000001000000000000000000000000000000000000000000000000000000372e4d020000000000000000000000000000000000000000000000000000000560430e260000000000000000000000000000000000000000000000000000000000686fe4ea00000000000000000000000000000000000000000000000000000000686558ea000000000000000000000000000000000000000000000000000000000000000a000000000000000000000000000000000000000000000000000001a088b5a20000000000000000000000000000000000000000000000000000000000000000020000000000000000000000000000000000000000000000000000000000000000",
          "blockHash": "0xbcd0e5eb45303ae9e59916a346b77c3e1490f9ed8029c3c778a23695ed4df40a",
          "blockNumber": "0x1a50898",
          "transactionHash": "0x297500633491ece888108235de43e8a28f41028a1d1d063d2068fba0ee21cdcf",
          "transactionIndex": "0x26",
          "logIndex": "0x11c",
          "removed": false
        }
      ],
      "logsBloom": "0x04000040000000000000000000000000000000000000000000000000000000020000000000000000000000000000000000000000008000000000000002000000000000000000000040000028000000000000000000000000000010000000000000000010000000000001000000000000000000000000000000000010040000000000000000000000000001000000000000000000000000000000000200000000000000000000000000000000000000000000020800000000000000000000000000000002000000001000000000000000000000040000000000000000000000100000000000000000000000000000000000000000000000000000000000000000",
      "type": "0x2",
      "transactionHash": "0x297500633491ece888108235de43e8a28f41028a1d1d063d2068fba0ee21cdcf",
      "transactionIndex": "0x26",
      "blockHash": "0xbcd0e5eb45303ae9e59916a346b77c3e1490f9ed8029c3c778a23695ed4df40a",
      "blockNumber": "0x1a50898",
      "gasUsed": "0x3adc4",
      "effectiveGasPrice": "0xf429c",
      "from": "0xa8a7da49bf284f2e00fc8857464c1652095ca338",
      "to": "0x674496fffc1ad1a11ef5b41c191fd7a698a0eb09",
      "contractAddress": null,
      "l1BaseFeeScalar": "0x44d",
      "l1BlobBaseFee": "0x1",
      "l1BlobBaseFeeScalar": "0xa118b",
      "l1Fee": "0x118cee6",
      "l1GasPrice": "0x8356e2",
      "l1GasUsed": "0x795"
    },
    {
      "status": "0x1",
      "cumulativeGasUsed": "0xf7163",
      "logs": [
        {
          "address": "0xc997288d1e971df9667dcb906cdbfd6fb4e50a7b",
          "topics": [
            "0xddf252ad1be2c89b69c2b068fc378daa952ba7f163c4a11628f55a4df523b3ef",
            "0x000000000000000000000000a8a7da49bf284f2e00fc8857464c1652095ca338",
            "0x000000000000000000000000674496fffc1ad1a11ef5b41c191fd7a698a0eb09"
          ],
          "data": "0x00000000000000000000000000000000000000000000000000000f7229aea600",
          "blockHash": "0xd106fe5fc902911a6b993e7131dbb8f947610de2396961f35c9baed75b3eb1f2",
          "blockNumber": "0x1a50899",
          "transactionHash": "0x7d5335705267b67cc1f21f0522c57116c27c596e059339de599076599a21646b",
          "transactionIndex": "0x5",
          "logIndex": "0x16",
          "removed": false
        },
        {
          "address": "0x674496fffc1ad1a11ef5b41c191fd7a698a0eb09",
          "topics": [
            "0x153a309a1eed1eb4a96469bedfff0aa799c297f5e800da3c4c158e9157aed26a",
            "0x0000000000000000000000000000000000000000000000000000000000000022",
            "0x000000000000000000000000a8a7da49bf284f2e00fc8857464c1652095ca338"
          ],
          "data": "0x00000000000000000000000000000000000000000000000000000000000000000000000000000000000000000000000000000000000000000000002b8a118e000000000000000000000000000000000000000000000000000000032c9435d40000000000000000000000000000000000000000000000000000000000686fe4ea000000000000000000000000000000000000000000000000000000006861646a0000000000000000000000000000000000000000000000000000000000000009000000000000000000000000000000000000000000000000000001b759f6f60000000000000000000000000000000000000000000000000000000000000000020000000000000000000000000000000000000000000000000000000000000001",
          "blockHash": "0xd106fe5fc902911a6b993e7131dbb8f947610de2396961f35c9baed75b3eb1f2",
          "blockNumber": "0x1a50899",
          "transactionHash": "0x7d5335705267b67cc1f21f0522c57116c27c596e059339de599076599a21646b",
          "transactionIndex": "0x5",
          "logIndex": "0x17",
          "removed": false
        }
      ],
      "logsBloom": "0x04000040000000000000000000000000000000000000000000000000000000000000000000000000000000000000000000000000008000000000000002000000000000000000000040000028000000000000000000000000000010000000000000000010000000000001000000000000000000000000000000000010000000000000020000000000000001000000000000000000000000000000004200000000000000000000000000000000000000000000020000000000000000000000000000000002000000001000000000000000000000040000000000000000000000180000000000000000000000000000000000000000000000000000000000000000",
      "type": "0x2",
      "transactionHash": "0x7d5335705267b67cc1f21f0522c57116c27c596e059339de599076599a21646b",
      "transactionIndex": "0x5",
      "blockHash": "0xd106fe5fc902911a6b993e7131dbb8f947610de2396961f35c9baed75b3eb1f2",
      "blockNumber": "0x1a50899",
      "gasUsed": "0x3fb87",
      "effectiveGasPrice": "0xf429c",
      "from": "0xa8a7da49bf284f2e00fc8857464c1652095ca338",
      "to": "0x674496fffc1ad1a11ef5b41c191fd7a698a0eb09",
      "contractAddress": null,
      "l1BaseFeeScalar": "0x44d",
      "l1BlobBaseFee": "0x1",
      "l1BlobBaseFeeScalar": "0xa118b",
      "l1Fee": "0x118cee6",
      "l1GasPrice": "0x8356e2",
      "l1GasUsed": "0x795"
    }
  ],
  "libraries": [],
  "pending": [],
  "returns": {},
  "timestamp": 1750954004,
  "chain": 84532,
  "commit": "c462e39"
}