{
  "transactions": [
    {
      "hash": "0x02c5fcd443c6db1f615d6edb87ec8bea0ac62e58ef661af674babaf0e71123fe",
      "transactionType": "CALL",
      "contractName": null,
      "contractAddress": "0x674496fffc1ad1a11ef5b41c191fd7a698a0eb09",
      "function": "createOption(bool,uint256,uint256,uint256,uint256,uint256,uint256,uint64,uint8)",
      "arguments": [
        "false",
        "472000000000",
        "3952000000000",
        "1751213108",
        "1752077108",
        "2",
        "2323000000000",
        "0",
        "0"
      ],
      "transaction": {
        "from": "0xa8a7da49bf284f2e00fc8857464c1652095ca338",
        "to": "0x674496fffc1ad1a11ef5b41c191fd7a698a0eb09",
        "gas": "0x5613b",
        "value": "0x0",
        "input": "0xc1f83e8d00000000000000000000000000000000000000000000000000000000000000000000000000000000000000000000000000000000000000000000006de564700000000000000000000000000000000000000000000000000000000398258e6000000000000000000000000000000000000000000000000000000000006861643400000000000000000000000000000000000000000000000000000000686e933400000000000000000000000000000000000000000000000000000000000000020000000000000000000000000000000000000000000000000000021cdd96fe0000000000000000000000000000000000000000000000000000000000000000000000000000000000000000000000000000000000000000000000000000000000",
        "nonce": "0xfe",
        "chainId": "0x14a34"
      },
      "additionalContracts": [],
      "isFixedGasLimit": false
    },
    {
      "hash": "0xb6ffb750adbe4580d8d44b388ef026aa29f94be85f259a62484e1ba7143a8fad",
      "transactionType": "CALL",
      "contractName": null,
      "contractAddress": "0x674496fffc1ad1a11ef5b41c191fd7a698a0eb09",
      "function": "createOption(bool,uint256,uint256,uint256,uint256,uint256,uint256,uint64,uint8)",
      "arguments": [
        "true",
        "173000000000",
        "7798000000000",
        "1751558708",
        "1752509108",
        "3",
        "2057000000000",
        "0",
        "1"
      ],
      "transaction": {
        "from": "0xa8a7da49bf284f2e00fc8857464c1652095ca338",
        "to": "0x674496fffc1ad1a11ef5b41c191fd7a698a0eb09",
        "gas": "0x5802f",
        "value": "0x0",
        "input": "0xc1f83e8d000000000000000000000000000000000000000000000000000000000000000100000000000000000000000000000000000000000000000000000028479a8200000000000000000000000000000000000000000000000000000007179d051c00000000000000000000000000000000000000000000000000000000006866aa340000000000000000000000000000000000000000000000000000000068752ab40000000000000000000000000000000000000000000000000000000000000003000000000000000000000000000000000000000000000000000001deeec11a0000000000000000000000000000000000000000000000000000000000000000000000000000000000000000000000000000000000000000000000000000000001",
        "nonce": "0xff",
        "chainId": "0x14a34"
      },
      "additionalContracts": [],
      "isFixedGasLimit": false
    },
    {
      "hash": "0xbdbbc9317f606089083fb9b70f1450ebd1d6765be53d50a60bcb1e18f918d911",
      "transactionType": "CALL",
      "contractName": null,
      "contractAddress": "0x674496fffc1ad1a11ef5b41c191fd7a698a0eb09",
      "function": "createOption(bool,uint256,uint256,uint256,uint256,uint256,uint256,uint64,uint8)",
      "arguments": [
        "true",
        "121000000000",
        "4931000000000",
        "1751213108",
        "1752336308",
        "2",
        "2092000000000",
        "0",
        "2"
      ],
      "transaction": {
        "from": "0xa8a7da49bf284f2e00fc8857464c1652095ca338",
        "to": "0x674496fffc1ad1a11ef5b41c191fd7a698a0eb09",
        "gas": "0x5802f",
        "value": "0x0",
        "input": "0xc1f83e8d00000000000000000000000000000000000000000000000000000000000000010000000000000000000000000000000000000000000000000000001c2c297a000000000000000000000000000000000000000000000000000000047c1680de00000000000000000000000000000000000000000000000000000000006861643400000000000000000000000000000000000000000000000000000000687287b40000000000000000000000000000000000000000000000000000000000000002000000000000000000000000000000000000000000000000000001e714eab80000000000000000000000000000000000000000000000000000000000000000000000000000000000000000000000000000000000000000000000000000000002",
        "nonce": "0x100",
        "chainId": "0x14a34"
      },
      "additionalContracts": [],
      "isFixedGasLimit": false
    },
    {
      "hash": "0x84dceebc75bc4546d65765a5e637a75b34fd038f605b4f432d958a8895052121",
      "transactionType": "CALL",
      "contractName": null,
      "contractAddress": "0x674496fffc1ad1a11ef5b41c191fd7a698a0eb09",
      "function": "createOption(bool,uint256,uint256,uint256,uint256,uint256,uint256,uint64,uint8)",
      "arguments": [
        "true",
        "387000000000",
        "6813000000000",
        "1751385908",
        "1752249908",
        "4",
        "2344000000000",
        "0",
        "0"
      ],
      "transaction": {
        "from": "0xa8a7da49bf284f2e00fc8857464c1652095ca338",
        "to": "0x674496fffc1ad1a11ef5b41c191fd7a698a0eb09",
        "gas": "0x514bf",
        "value": "0x0",
        "input": "0xc1f83e8d00000000000000000000000000000000000000000000000000000000000000010000000000000000000000000000000000000000000000000000005a1aff5e00000000000000000000000000000000000000000000000000000006324671e20000000000000000000000000000000000000000000000000000000000686407340000000000000000000000000000000000000000000000000000000068713634000000000000000000000000000000000000000000000000000000000000000400000000000000000000000000000000000000000000000000000221c149900000000000000000000000000000000000000000000000000000000000000000000000000000000000000000000000000000000000000000000000000000000000",
        "nonce": "0x101",
        "chainId": "0x14a34"
      },
      "additionalContracts": [],
      "isFixedGasLimit": false
    },
    {
      "hash": "0x042189f665da90d1c622738551d6cc8ad6538f9494af7e19a94a28fe911d0dc2",
      "transactionType": "CALL",
      "contractName": null,
      "contractAddress": "0x674496fffc1ad1a11ef5b41c191fd7a698a0eb09",
      "function": "createOption(bool,uint256,uint256,uint256,uint256,uint256,uint256,uint64,uint8)",
      "arguments": [
        "false",
        "330000000000",
        "2462000000000",
        "1751472308",
        "1752163508",
        "9",
        "1188000000000",
        "0",
        "1"
      ],
      "transaction": {
        "from": "0xa8a7da49bf284f2e00fc8857464c1652095ca338",
        "to": "0x674496fffc1ad1a11ef5b41c191fd7a698a0eb09",
        "gas": "0x5d2fd",
        "value": "0x0",
        "input": "0xc1f83e8d00000000000000000000000000000000000000000000000000000000000000000000000000000000000000000000000000000000000000000000004cd58864000000000000000000000000000000000000000000000000000000023d3aa2ac0000000000000000000000000000000000000000000000000000000000686558b400000000000000000000000000000000000000000000000000000000686fe4b40000000000000000000000000000000000000000000000000000000000000009000000000000000000000000000000000000000000000000000001149a51680000000000000000000000000000000000000000000000000000000000000000000000000000000000000000000000000000000000000000000000000000000001",
        "nonce": "0x102",
        "chainId": "0x14a34"
      },
      "additionalContracts": [],
      "isFixedGasLimit": false
    },
    {
      "hash": "0x528822c3c662d2ebb546d29eefc9fb527cda1a1d2b7c1d69d520cba756f16b19",
      "transactionType": "CALL",
      "contractName": null,
      "contractAddress": "0x674496fffc1ad1a11ef5b41c191fd7a698a0eb09",
      "function": "createOption(bool,uint256,uint256,uint256,uint256,uint256,uint256,uint64,uint8)",
      "arguments": [
        "false",
        "447000000000",
        "5437000000000",
        "1751213108",
        "1752509108",
        "7",
        "2150000000000",
        "1",
        "0"
      ],
      "transaction": {
        "from": "0xa8a7da49bf284f2e00fc8857464c1652095ca338",
        "to": "0x674496fffc1ad1a11ef5b41c191fd7a698a0eb09",
        "gas": "0x514c8",
        "value": "0x0",
        "input": "0xc1f83e8d0000000000000000000000000000000000000000000000000000000000000000000000000000000000000000000000000000000000000000000000681346b600000000000000000000000000000000000000000000000000000004f1e674220000000000000000000000000000000000000000000000000000000000686164340000000000000000000000000000000000000000000000000000000068752ab40000000000000000000000000000000000000000000000000000000000000007000000000000000000000000000000000000000000000000000001f495fc7c0000000000000000000000000000000000000000000000000000000000000000010000000000000000000000000000000000000000000000000000000000000000",
        "nonce": "0x103",
        "chainId": "0x14a34"
      },
      "additionalContracts": [],
      "isFixedGasLimit": false
    },
    {
      "hash": "0xe3cddd5e4d7ce58b1b57ae51e4e7bc01ead2b9c26d3cee75750c3cee0d3ed5ba",
      "transactionType": "CALL",
      "contractName": null,
      "contractAddress": "0x674496fffc1ad1a11ef5b41c191fd7a698a0eb09",
      "function": "createOption(bool,uint256,uint256,uint256,uint256,uint256,uint256,uint64,uint8)",
      "arguments": [
        "false",
        "483000000000",
        "6714000000000",
        "1751385908",
        "1752077108",
        "5",
        "2736000000000",
        "1",
        "1"
      ],
      "transaction": {
        "from": "0xa8a7da49bf284f2e00fc8857464c1652095ca338",
        "to": "0x674496fffc1ad1a11ef5b41c191fd7a698a0eb09",
        "gas": "0x58038",
        "value": "0x0",
        "input": "0xc1f83e8d000000000000000000000000000000000000000000000000000000000000000000000000000000000000000000000000000000000000000000000070750b1e000000000000000000000000000000000000000000000000000000061b3995c400000000000000000000000000000000000000000000000000000000006864073400000000000000000000000000000000000000000000000000000000686e933400000000000000000000000000000000000000000000000000000000000000050000000000000000000000000000000000000000000000000000027d064ee00000000000000000000000000000000000000000000000000000000000000000010000000000000000000000000000000000000000000000000000000000000001",
        "nonce": "0x104",
        "chainId": "0x14a34"
      },
      "additionalContracts": [],
      "isFixedGasLimit": false
    },
    {
      "hash": "0xecbdbc94cac0746aa4f9f54bebc09e258b3a0ad4964205ee07bc1a490d202abd",
      "transactionType": "CALL",
      "contractName": null,
      "contractAddress": "0x674496fffc1ad1a11ef5b41c191fd7a698a0eb09",
      "function": "createOption(bool,uint256,uint256,uint256,uint256,uint256,uint256,uint64,uint8)",
      "arguments": [
        "true",
        "332000000000",
        "3158000000000",
        "1751213108",
        "1752336308",
        "2",
        "1566000000000",
        "1",
        "2"
      ],
      "transaction": {
        "from": "0xa8a7da49bf284f2e00fc8857464c1652095ca338",
        "to": "0x674496fffc1ad1a11ef5b41c191fd7a698a0eb09",
        "gas": "0x5803e",
        "value": "0x0",
        "input": "0xc1f83e8d00000000000000000000000000000000000000000000000000000000000000010000000000000000000000000000000000000000000000000000004d4cbdf800000000000000000000000000000000000000000000000000000002df4777dc00000000000000000000000000000000000000000000000000000000006861643400000000000000000000000000000000000000000000000000000000687287b400000000000000000000000000000000000000000000000000000000000000020000000000000000000000000000000000000000000000000000016c9cdfac0000000000000000000000000000000000000000000000000000000000000000010000000000000000000000000000000000000000000000000000000000000002",
        "nonce": "0x105",
        "chainId": "0x14a34"
      },
      "additionalContracts": [],
      "isFixedGasLimit": false
    },
    {
      "hash": "0xf689cc1b6bcb7ce8dd99f54731753c534cf77ad9ae33d22863fb7fc61263fab5",
      "transactionType": "CALL",
      "contractName": null,
      "contractAddress": "0x674496fffc1ad1a11ef5b41c191fd7a698a0eb09",
      "function": "createOption(bool,uint256,uint256,uint256,uint256,uint256,uint256,uint64,uint8)",
      "arguments": [
        "false",
        "126000000000",
        "4408000000000",
        "1751472308",
        "1752336308",
        "8",
        "2123000000000",
        "1",
        "0"
      ],
      "transaction": {
        "from": "0xa8a7da49bf284f2e00fc8857464c1652095ca338",
        "to": "0x674496fffc1ad1a11ef5b41c191fd7a698a0eb09",
        "gas": "0x514c8",
        "value": "0x0",
        "input": "0xc1f83e8d00000000000000000000000000000000000000000000000000000000000000000000000000000000000000000000000000000000000000000000001d562f6c00000000000000000000000000000000000000000000000000000004025146300000000000000000000000000000000000000000000000000000000000686558b400000000000000000000000000000000000000000000000000000000687287b40000000000000000000000000000000000000000000000000000000000000008000000000000000000000000000000000000000000000000000001ee4ca92e0000000000000000000000000000000000000000000000000000000000000000010000000000000000000000000000000000000000000000000000000000000000",
        "nonce": "0x106",
        "chainId": "0x14a34"
      },
      "additionalContracts": [],
      "isFixedGasLimit": false
    },
    {
      "hash": "0x6d223f7bcc71177d1d1202785cea2897804f3a004b726941d0899944abfb3246",
      "transactionType": "CALL",
      "contractName": null,
      "contractAddress": "0x674496fffc1ad1a11ef5b41c191fd7a698a0eb09",
      "function": "createOption(bool,uint256,uint256,uint256,uint256,uint256,uint256,uint64,uint8)",
      "arguments": [
        "false",
        "415000000000",
        "4483000000000",
        "1751213108",
        "1752509108",
        "8",
        "2021000000000",
        "1",
        "1"
      ],
      "transaction": {
        "from": "0xa8a7da49bf284f2e00fc8857464c1652095ca338",
        "to": "0x674496fffc1ad1a11ef5b41c191fd7a698a0eb09",
        "gas": "0x58038",
        "value": "0x0",
        "input": "0xc1f83e8d0000000000000000000000000000000000000000000000000000000000000000000000000000000000000000000000000000000000000000000000609fed760000000000000000000000000000000000000000000000000000000413c79f5e0000000000000000000000000000000000000000000000000000000000686164340000000000000000000000000000000000000000000000000000000068752ab40000000000000000000000000000000000000000000000000000000000000008000000000000000000000000000000000000000000000000000001d68cfcb20000000000000000000000000000000000000000000000000000000000000000010000000000000000000000000000000000000000000000000000000000000001",
        "nonce": "0x107",
        "chainId": "0x14a34"
      },
      "additionalContracts": [],
      "isFixedGasLimit": false
    },
    {
      "hash": "0x4af2757f05ed93d132e768de07888203f9cbe6dd55b6f50362b78aecf9a854e8",
      "transactionType": "CALL",
      "contractName": null,
      "contractAddress": "0x674496fffc1ad1a11ef5b41c191fd7a698a0eb09",
      "function": "createOption(bool,uint256,uint256,uint256,uint256,uint256,uint256,uint64,uint8)",
      "arguments": [
        "false",
        "388000000000",
        "3663000000000",
        "1751558708",
        "1752336308",
        "9",
        "2617000000000",
        "2",
        "0"
      ],
      "transaction": {
        "from": "0xa8a7da49bf284f2e00fc8857464c1652095ca338",
        "to": "0x674496fffc1ad1a11ef5b41c191fd7a698a0eb09",
        "gas": "0x514c8",
        "value": "0x0",
        "input": "0xc1f83e8d00000000000000000000000000000000000000000000000000000000000000000000000000000000000000000000000000000000000000000000005a569a280000000000000000000000000000000000000000000000000000000354dbd05600000000000000000000000000000000000000000000000000000000006866aa3400000000000000000000000000000000000000000000000000000000687287b4000000000000000000000000000000000000000000000000000000000000000900000000000000000000000000000000000000000000000000000261515afa0000000000000000000000000000000000000000000000000000000000000000020000000000000000000000000000000000000000000000000000000000000000",
        "nonce": "0x108",
        "chainId": "0x14a34"
      },
      "additionalContracts": [],
      "isFixedGasLimit": false
    },
    {
      "hash": "0x1c319ab16ed2501ef3059b15530099a10b241f6f72f6621785346ea45c049a13",
      "transactionType": "CALL",
      "contractName": null,
      "contractAddress": "0x674496fffc1ad1a11ef5b41c191fd7a698a0eb09",
      "function": "createOption(bool,uint256,uint256,uint256,uint256,uint256,uint256,uint64,uint8)",
      "arguments": [
        "false",
        "314000000000",
        "5671000000000",
        "1751558708",
        "1752163508",
        "4",
        "1218000000000",
        "2",
        "1"
      ],
      "transaction": {
        "from": "0xa8a7da49bf284f2e00fc8857464c1652095ca338",
        "to": "0x674496fffc1ad1a11ef5b41c191fd7a698a0eb09",
        "gas": "0x58038",
        "value": "0x0",
        "input": "0xc1f83e8d0000000000000000000000000000000000000000000000000000000000000000000000000000000000000000000000000000000000000000000000491bdbc4000000000000000000000000000000000000000000000000000000052861f0c600000000000000000000000000000000000000000000000000000000006866aa3400000000000000000000000000000000000000000000000000000000686fe4b400000000000000000000000000000000000000000000000000000000000000040000000000000000000000000000000000000000000000000000011b9675140000000000000000000000000000000000000000000000000000000000000000020000000000000000000000000000000000000000000000000000000000000001",
        "nonce": "0x109",
        "chainId": "0x14a34"
      },
      "additionalContracts": [],
      "isFixedGasLimit": false
    },
    {
      "hash": "0x481b8a53793cb15502e5d69742ac846ee696f11610315c9d66f8bd136c9d38c3",
      "transactionType": "CALL",
      "contractName": null,
      "contractAddress": "0x674496fffc1ad1a11ef5b41c191fd7a698a0eb09",
      "function": "createOption(bool,uint256,uint256,uint256,uint256,uint256,uint256,uint64,uint8)",
      "arguments": [
        "true",
        "176000000000",
        "7574000000000",
        "1751558708",
        "1752509108",
        "6",
        "2675000000000",
        "2",
        "2"
      ],
      "transaction": {
        "from": "0xa8a7da49bf284f2e00fc8857464c1652095ca338",
        "to": "0x674496fffc1ad1a11ef5b41c191fd7a698a0eb09",
        "gas": "0x5803e",
        "value": "0x0",
        "input": "0xc1f83e8d000000000000000000000000000000000000000000000000000000000000000100000000000000000000000000000000000000000000000000000028fa6ae000000000000000000000000000000000000000000000000000000006e375945c00000000000000000000000000000000000000000000000000000000006866aa340000000000000000000000000000000000000000000000000000000068752ab400000000000000000000000000000000000000000000000000000000000000060000000000000000000000000000000000000000000000000000026ed26cbe0000000000000000000000000000000000000000000000000000000000000000020000000000000000000000000000000000000000000000000000000000000002",
        "nonce": "0x10a",
        "chainId": "0x14a34"
      },
      "additionalContracts": [],
      "isFixedGasLimit": false
    },
    {
      "hash": "0xbc2fb315377fd087f5e3c6869be2cd04f417aaf96e6718de2fc99105ca23542e",
      "transactionType": "CALL",
      "contractName": null,
      "contractAddress": "0x674496fffc1ad1a11ef5b41c191fd7a698a0eb09",
      "function": "createOption(bool,uint256,uint256,uint256,uint256,uint256,uint256,uint64,uint8)",
      "arguments": [
        "true",
        "142000000000",
        "2489000000000",
        "1751558708",
        "1752249908",
        "7",
        "2704000000000",
        "2",
        "0"
      ],
      "transaction": {
        "from": "0xa8a7da49bf284f2e00fc8857464c1652095ca338",
        "to": "0x674496fffc1ad1a11ef5b41c191fd7a698a0eb09",
        "gas": "0x514d0",
        "value": "0x0",
        "input": "0xc1f83e8d0000000000000000000000000000000000000000000000000000000000000001000000000000000000000000000000000000000000000000000000210fdc0c000000000000000000000000000000000000000000000000000000024383f5fa00000000000000000000000000000000000000000000000000000000006866aa34000000000000000000000000000000000000000000000000000000006871363400000000000000000000000000000000000000000000000000000000000000070000000000000000000000000000000000000000000000000000027592f5a00000000000000000000000000000000000000000000000000000000000000000020000000000000000000000000000000000000000000000000000000000000000",
        "nonce": "0x10b",
        "chainId": "0x14a34"
      },
      "additionalContracts": [],
      "isFixedGasLimit": false
    },
    {
      "hash": "0x6cdf57dd0808f4906a32763f92db446ef0a8c4ee3e85b73342b4cf162c9fde36",
      "transactionType": "CALL",
      "contractName": null,
      "contractAddress": "0x674496fffc1ad1a11ef5b41c191fd7a698a0eb09",
      "function": "createOption(bool,uint256,uint256,uint256,uint256,uint256,uint256,uint64,uint8)",
      "arguments": [
        "false",
        "236000000000",
        "6908000000000",
        "1751385908",
        "1752249908",
        "9",
        "2660000000000",
        "2",
        "1"
      ],
      "transaction": {
        "from": "0xa8a7da49bf284f2e00fc8857464c1652095ca338",
        "to": "0x674496fffc1ad1a11ef5b41c191fd7a698a0eb09",
        "gas": "0x58038",
        "value": "0x0",
        "input": "0xc1f83e8d000000000000000000000000000000000000000000000000000000000000000000000000000000000000000000000000000000000000000000000036f2b238000000000000000000000000000000000000000000000000000000064864e2d8000000000000000000000000000000000000000000000000000000000068640734000000000000000000000000000000000000000000000000000000006871363400000000000000000000000000000000000000000000000000000000000000090000000000000000000000000000000000000000000000000000026b545ae80000000000000000000000000000000000000000000000000000000000000000020000000000000000000000000000000000000000000000000000000000000001",
        "nonce": "0x10c",
        "chainId": "0x14a34"
      },
      "additionalContracts": [],
      "isFixedGasLimit": false
    }
  ],
  "receipts": [
    {
      "status": "0x1",
      "cumulativeGasUsed": "0xb590f0",
      "logs": [
        {
          "address": "0xc997288d1e971df9667dcb906cdbfd6fb4e50a7b",
          "topics": [
            "0xddf252ad1be2c89b69c2b068fc378daa952ba7f163c4a11628f55a4df523b3ef",
            "0x000000000000000000000000a8a7da49bf284f2e00fc8857464c1652095ca338",
            "0x000000000000000000000000674496fffc1ad1a11ef5b41c191fd7a698a0eb09"
          ],
          "data": "0x00000000000000000000000000000000000000000000000000000439bb2dfc00",
          "blockHash": "0x9ce4ea55ee1715c6b2e5eb1ea2aa83048875821aca35386d9b336ab7b77d6ac5",
          "blockNumber": "0x1a5087d",
          "transactionHash": "0x02c5fcd443c6db1f615d6edb87ec8bea0ac62e58ef661af674babaf0e71123fe",
          "transactionIndex": "0x14",
          "logIndex": "0x123",
          "removed": false
        },
        {
          "address": "0x674496fffc1ad1a11ef5b41c191fd7a698a0eb09",
          "topics": [
            "0x153a309a1eed1eb4a96469bedfff0aa799c297f5e800da3c4c158e9157aed26a",
            "0x0000000000000000000000000000000000000000000000000000000000000005",
            "0x000000000000000000000000a8a7da49bf284f2e00fc8857464c1652095ca338"
          ],
          "data": "0x00000000000000000000000000000000000000000000000000000000000000000000000000000000000000000000000000000000000000000000006de564700000000000000000000000000000000000000000000000000000000398258e600000000000000000000000000000000000000000000000000000000000686e9334000000000000000000000000000000000000000000000000000000006861643400000000000000000000000000000000000000000000000000000000000000020000000000000000000000000000000000000000000000000000021cdd96fe0000000000000000000000000000000000000000000000000000000000000000000000000000000000000000000000000000000000000000000000000000000000",
          "blockHash": "0x9ce4ea55ee1715c6b2e5eb1ea2aa83048875821aca35386d9b336ab7b77d6ac5",
          "blockNumber": "0x1a5087d",
          "transactionHash": "0x02c5fcd443c6db1f615d6edb87ec8bea0ac62e58ef661af674babaf0e71123fe",
          "transactionIndex": "0x14",
          "logIndex": "0x124",
          "removed": false
        }
      ],
      "logsBloom": "0x04000040000000000000000000000000000000000000000000000000000000000000000000000000000000000000000000000000008000000000000002000000000010000000000040000028000000000000000000000000000010000000000000000010000000000001000000000000000000000000000000000010000000000000000000000000000001000000001000000800000000000000000200000000000000000000000000000000000000000000020000000000000000000000000000000002000000001000000000000000000000040000000000000000000000100000000000000000000000000000000000000000000000000000000000000000",
      "type": "0x2",
      "transactionHash": "0x02c5fcd443c6db1f615d6edb87ec8bea0ac62e58ef661af674babaf0e71123fe",
      "transactionIndex": "0x14",
      "blockHash": "0x9ce4ea55ee1715c6b2e5eb1ea2aa83048875821aca35386d9b336ab7b77d6ac5",
      "blockNumber": "0x1a5087d",
      "gasUsed": "0x3adb3",
      "effectiveGasPrice": "0xf429c",
      "from": "0xa8a7da49bf284f2e00fc8857464c1652095ca338",
      "to": "0x674496fffc1ad1a11ef5b41c191fd7a698a0eb09",
      "contractAddress": null,
      "l1BaseFeeScalar": "0x44d",
      "l1BlobBaseFee": "0x1",
      "l1BlobBaseFeeScalar": "0xa118b",
      "l1Fee": "0x11269da",
      "l1GasPrice": "0x8ae09f",
      "l1GasUsed": "0x702"
    },
    {
      "status": "0x1",
      "cumulativeGasUsed": "0xd9ec89",
      "logs": [
        {
          "address": "0xc997288d1e971df9667dcb906cdbfd6fb4e50a7b",
          "topics": [
            "0xddf252ad1be2c89b69c2b068fc378daa952ba7f163c4a11628f55a4df523b3ef",
            "0x000000000000000000000000a8a7da49bf284f2e00fc8857464c1652095ca338",
            "0x000000000000000000000000674496fffc1ad1a11ef5b41c191fd7a698a0eb09"
          ],
          "data": "0x0000000000000000000000000000000000000000000000000000059ccc434e00",
          "blockHash": "0x9ce4ea55ee1715c6b2e5eb1ea2aa83048875821aca35386d9b336ab7b77d6ac5",
          "blockNumber": "0x1a5087d",
          "transactionHash": "0xb6ffb750adbe4580d8d44b388ef026aa29f94be85f259a62484e1ba7143a8fad",
          "transactionIndex": "0x1c",
          "logIndex": "0x134",
          "removed": false
        },
        {
          "address": "0x674496fffc1ad1a11ef5b41c191fd7a698a0eb09",
          "topics": [
            "0x153a309a1eed1eb4a96469bedfff0aa799c297f5e800da3c4c158e9157aed26a",
            "0x0000000000000000000000000000000000000000000000000000000000000006",
            "0x000000000000000000000000a8a7da49bf284f2e00fc8857464c1652095ca338"
          ],
          "data": "0x000000000000000000000000000000000000000000000000000000000000000100000000000000000000000000000000000000000000000000000028479a8200000000000000000000000000000000000000000000000000000007179d051c000000000000000000000000000000000000000000000000000000000068752ab4000000000000000000000000000000000000000000000000000000006866aa340000000000000000000000000000000000000000000000000000000000000003000000000000000000000000000000000000000000000000000001deeec11a0000000000000000000000000000000000000000000000000000000000000000000000000000000000000000000000000000000000000000000000000000000001",
          "blockHash": "0x9ce4ea55ee1715c6b2e5eb1ea2aa83048875821aca35386d9b336ab7b77d6ac5",
          "blockNumber": "0x1a5087d",
          "transactionHash": "0xb6ffb750adbe4580d8d44b388ef026aa29f94be85f259a62484e1ba7143a8fad",
          "transactionIndex": "0x1c",
          "logIndex": "0x135",
          "removed": false
        }
      ],
      "logsBloom": "0x04000040000000000000000000000000000000000000000000000000000000000000000000000000000000000000000000000000008400000000000002000000000000000000000040000028000000000000000000000000000010000000000000000010000000000001000000000000000000000000000000000010000000000000000400000000000001000000000000000000000000000000000200000000000000000000000000000000000000000000020000000000000000080000000000000002000000001000000000000000000000040000000000000000000000100000000000000000000000000000000000000000000000000000000000000000",
      "type": "0x2",
      "transactionHash": "0xb6ffb750adbe4580d8d44b388ef026aa29f94be85f259a62484e1ba7143a8fad",
      "transactionIndex": "0x1c",
      "blockHash": "0x9ce4ea55ee1715c6b2e5eb1ea2aa83048875821aca35386d9b336ab7b77d6ac5",
      "blockNumber": "0x1a5087d",
      "gasUsed": "0x3fb80",
      "effectiveGasPrice": "0xf429c",
      "from": "0xa8a7da49bf284f2e00fc8857464c1652095ca338",
      "to": "0x674496fffc1ad1a11ef5b41c191fd7a698a0eb09",
      "contractAddress": null,
      "l1BaseFeeScalar": "0x44d",
      "l1BlobBaseFee": "0x1",
      "l1BlobBaseFeeScalar": "0xa118b",
      "l1Fee": "0x120bd23",
      "l1GasPrice": "0x8ae09f",
      "l1GasUsed": "0x760"
    },
    {
      "status": "0x1",
      "cumulativeGasUsed": "0xdde809",
      "logs": [
        {
          "address": "0xc997288d1e971df9667dcb906cdbfd6fb4e50a7b",
          "topics": [
            "0xddf252ad1be2c89b69c2b068fc378daa952ba7f163c4a11628f55a4df523b3ef",
            "0x000000000000000000000000a8a7da49bf284f2e00fc8857464c1652095ca338",
            "0x000000000000000000000000674496fffc1ad1a11ef5b41c191fd7a698a0eb09"
          ],
          "data": "0x000000000000000000000000000000000000000000000000000003ce29d57000",
          "blockHash": "0x9ce4ea55ee1715c6b2e5eb1ea2aa83048875821aca35386d9b336ab7b77d6ac5",
          "blockNumber": "0x1a5087d",
          "transactionHash": "0xbdbbc9317f606089083fb9b70f1450ebd1d6765be53d50a60bcb1e18f918d911",
          "transactionIndex": "0x1d",
          "logIndex": "0x136",
          "removed": false
        },
        {
          "address": "0x674496fffc1ad1a11ef5b41c191fd7a698a0eb09",
          "topics": [
            "0x153a309a1eed1eb4a96469bedfff0aa799c297f5e800da3c4c158e9157aed26a",
            "0x0000000000000000000000000000000000000000000000000000000000000007",
            "0x000000000000000000000000a8a7da49bf284f2e00fc8857464c1652095ca338"
          ],
          "data": "0x00000000000000000000000000000000000000000000000000000000000000010000000000000000000000000000000000000000000000000000001c2c297a000000000000000000000000000000000000000000000000000000047c1680de0000000000000000000000000000000000000000000000000000000000687287b400000000000000000000000000000000000000000000000000000000686164340000000000000000000000000000000000000000000000000000000000000002000000000000000000000000000000000000000000000000000001e714eab80000000000000000000000000000000000000000000000000000000000000000000000000000000000000000000000000000000000000000000000000000000002",
          "blockHash": "0x9ce4ea55ee1715c6b2e5eb1ea2aa83048875821aca35386d9b336ab7b77d6ac5",
          "blockNumber": "0x1a5087d",
          "transactionHash": "0xbdbbc9317f606089083fb9b70f1450ebd1d6765be53d50a60bcb1e18f918d911",
          "transactionIndex": "0x1d",
          "logIndex": "0x137",
          "removed": false
        }
      ],
      "logsBloom": "0x04000040000000000000000000000000000000000000000000000000000000000000000000000000000000000000000000001000008000000000000002000000000020000000000040000028000000000000000000000000000010000000000000000010000000000001000000000000000000000000000000000010000000000000000000000000000001000000000000000000000000000000000200000000000000000000000000000000000000000000020000000000000000000000000000000002000000001000000000000000000000040000000000000100000000100000000000000000000000000000000000000000000000000000000000000000",
      "type": "0x2",
      "transactionHash": "0xbdbbc9317f606089083fb9b70f1450ebd1d6765be53d50a60bcb1e18f918d911",
      "transactionIndex": "0x1d",
      "blockHash": "0x9ce4ea55ee1715c6b2e5eb1ea2aa83048875821aca35386d9b336ab7b77d6ac5",
      "blockNumber": "0x1a5087d",
      "gasUsed": "0x3fb80",
      "effectiveGasPrice": "0xf429c",
      "from": "0xa8a7da49bf284f2e00fc8857464c1652095ca338",
      "to": "0x674496fffc1ad1a11ef5b41c191fd7a698a0eb09",
      "contractAddress": null,
      "l1BaseFeeScalar": "0x44d",
      "l1BlobBaseFee": "0x1",
      "l1BlobBaseFeeScalar": "0xa118b",
      "l1Fee": "0x122c909",
      "l1GasPrice": "0x8ae09f",
      "l1GasUsed": "0x76d"
    },
    {
      "status": "0x1",
      "cumulativeGasUsed": "0xe195c1",
      "logs": [
        {
          "address": "0xc997288d1e971df9667dcb906cdbfd6fb4e50a7b",
          "topics": [
            "0xddf252ad1be2c89b69c2b068fc378daa952ba7f163c4a11628f55a4df523b3ef",
            "0x000000000000000000000000a8a7da49bf284f2e00fc8857464c1652095ca338",
            "0x000000000000000000000000674496fffc1ad1a11ef5b41c191fd7a698a0eb09"
          ],
          "data": "0x0000000000000000000000000000000000000000000000000000088705264000",
          "blockHash": "0x9ce4ea55ee1715c6b2e5eb1ea2aa83048875821aca35386d9b336ab7b77d6ac5",
          "blockNumber": "0x1a5087d",
          "transactionHash": "0x84dceebc75bc4546d65765a5e637a75b34fd038f605b4f432d958a8895052121",
          "transactionIndex": "0x1e",
          "logIndex": "0x138",
          "removed": false
        },
        {
          "address": "0x674496fffc1ad1a11ef5b41c191fd7a698a0eb09",
          "topics": [
            "0x153a309a1eed1eb4a96469bedfff0aa799c297f5e800da3c4c158e9157aed26a",
            "0x0000000000000000000000000000000000000000000000000000000000000008",
            "0x000000000000000000000000a8a7da49bf284f2e00fc8857464c1652095ca338"
          ],
          "data": "0x00000000000000000000000000000000000000000000000000000000000000010000000000000000000000000000000000000000000000000000005a1aff5e00000000000000000000000000000000000000000000000000000006324671e20000000000000000000000000000000000000000000000000000000000687136340000000000000000000000000000000000000000000000000000000068640734000000000000000000000000000000000000000000000000000000000000000400000000000000000000000000000000000000000000000000000221c149900000000000000000000000000000000000000000000000000000000000000000000000000000000000000000000000000000000000000000000000000000000000",
          "blockHash": "0x9ce4ea55ee1715c6b2e5eb1ea2aa83048875821aca35386d9b336ab7b77d6ac5",
          "blockNumber": "0x1a5087d",
          "transactionHash": "0x84dceebc75bc4546d65765a5e637a75b34fd038f605b4f432d958a8895052121",
          "transactionIndex": "0x1e",
          "logIndex": "0x139",
          "removed": false
        }
      ],
      "logsBloom": "0x04000040000000000000000000000000000000000000000000000000000000000000000000000000000000000000000000000000008080000000000002000000000000000000000040000028000000000000000000000000000010000000000000000010000000000001000000000000000000000000000000000010000000000080000000000000000001000000000000000000000000000000000200000000000000000000000000000000000000000000020000000000000000000000000040000002000000001000000000000000000000040000000000000000000000100000000000000000000000000000000000000000000000000000000000000000",
      "type": "0x2",
      "transactionHash": "0x84dceebc75bc4546d65765a5e637a75b34fd038f605b4f432d958a8895052121",
      "transactionIndex": "0x1e",
      "blockHash": "0x9ce4ea55ee1715c6b2e5eb1ea2aa83048875821aca35386d9b336ab7b77d6ac5",
      "blockNumber": "0x1a5087d",
      "gasUsed": "0x3adb8",
      "effectiveGasPrice": "0xf429c",
      "from": "0xa8a7da49bf284f2e00fc8857464c1652095ca338",
      "to": "0x674496fffc1ad1a11ef5b41c191fd7a698a0eb09",
      "contractAddress": null,
      "l1BaseFeeScalar": "0x44d",
      "l1BlobBaseFee": "0x1",
      "l1BlobBaseFeeScalar": "0xa118b",
      "l1Fee": "0x11eb13d",
      "l1GasPrice": "0x8ae09f",
      "l1GasUsed": "0x752"
    },
    {
      "status": "0x1",
      "cumulativeGasUsed": "0xe5913c",
      "logs": [
        {
          "address": "0xc997288d1e971df9667dcb906cdbfd6fb4e50a7b",
          "topics": [
            "0xddf252ad1be2c89b69c2b068fc378daa952ba7f163c4a11628f55a4df523b3ef",
            "0x000000000000000000000000a8a7da49bf284f2e00fc8857464c1652095ca338",
            "0x000000000000000000000000674496fffc1ad1a11ef5b41c191fd7a698a0eb09"
          ],
          "data": "0x000000000000000000000000000000000000000000000000000009b96cdca800",
          "blockHash": "0x9ce4ea55ee1715c6b2e5eb1ea2aa83048875821aca35386d9b336ab7b77d6ac5",
          "blockNumber": "0x1a5087d",
          "transactionHash": "0x042189f665da90d1c622738551d6cc8ad6538f9494af7e19a94a28fe911d0dc2",
          "transactionIndex": "0x1f",
          "logIndex": "0x13a",
          "removed": false
        },
        {
          "address": "0x674496fffc1ad1a11ef5b41c191fd7a698a0eb09",
          "topics": [
            "0x153a309a1eed1eb4a96469bedfff0aa799c297f5e800da3c4c158e9157aed26a",
            "0x0000000000000000000000000000000000000000000000000000000000000009",
            "0x000000000000000000000000a8a7da49bf284f2e00fc8857464c1652095ca338"
          ],
          "data": "0x00000000000000000000000000000000000000000000000000000000000000000000000000000000000000000000000000000000000000000000004cd58864000000000000000000000000000000000000000000000000000000023d3aa2ac0000000000000000000000000000000000000000000000000000000000686fe4b400000000000000000000000000000000000000000000000000000000686558b40000000000000000000000000000000000000000000000000000000000000009000000000000000000000000000000000000000000000000000001149a51680000000000000000000000000000000000000000000000000000000000000000000000000000000000000000000000000000000000000000000000000000000001",
          "blockHash": "0x9ce4ea55ee1715c6b2e5eb1ea2aa83048875821aca35386d9b336ab7b77d6ac5",
          "blockNumber": "0x1a5087d",
          "transactionHash": "0x042189f665da90d1c622738551d6cc8ad6538f9494af7e19a94a28fe911d0dc2",
          "transactionIndex": "0x1f",
          "logIndex": "0x13b",
          "removed": false
        }
      ],
      "logsBloom": "0x04000040000000000000000000000000000000000000000000000000000000000000000000000000000000000000000000000000008000000000000002200000000000000000000040000028000000000000000000000000000010000000000000000010000000000001000000000000000000000000000000000010000000000000000000000000000001000000000000001000000000000000000200000000000000000000000000000000000000000000020000000000000000000000000000000002000000001000000000000000000000040000000000000000000000100000000000000000000000000000000000000000000000000000000000800000",
      "type": "0x2",
      "transactionHash": "0x042189f665da90d1c622738551d6cc8ad6538f9494af7e19a94a28fe911d0dc2",
      "transactionIndex": "0x1f",
      "blockHash": "0x9ce4ea55ee1715c6b2e5eb1ea2aa83048875821aca35386d9b336ab7b77d6ac5",
      "blockNumber": "0x1a5087d",
      "gasUsed": "0x3fb7b",
      "effectiveGasPrice": "0xf429c",
      "from": "0xa8a7da49bf284f2e00fc8857464c1652095ca338",
      "to": "0x674496fffc1ad1a11ef5b41c191fd7a698a0eb09",
      "contractAddress": null,
      "l1BaseFeeScalar": "0x44d",
      "l1BlobBaseFee": "0x1",
      "l1BlobBaseFeeScalar": "0xa118b",
      "l1Fee": "0x11681a6",
      "l1GasPrice": "0x8ae09f",
      "l1GasUsed": "0x71d"
    },
    {
      "status": "0x1",
      "cumulativeGasUsed": "0xe93efb",
      "logs": [
        {
          "address": "0xc997288d1e971df9667dcb906cdbfd6fb4e50a7b",
          "topics": [
            "0xddf252ad1be2c89b69c2b068fc378daa952ba7f163c4a11628f55a4df523b3ef",
            "0x000000000000000000000000a8a7da49bf284f2e00fc8857464c1652095ca338",
            "0x000000000000000000000000674496fffc1ad1a11ef5b41c191fd7a698a0eb09"
          ],
          "data": "0x00000000000000000000000000000000000000000000000000000db019e76400",
          "blockHash": "0x9ce4ea55ee1715c6b2e5eb1ea2aa83048875821aca35386d9b336ab7b77d6ac5",
          "blockNumber": "0x1a5087d",
          "transactionHash": "0x528822c3c662d2ebb546d29eefc9fb527cda1a1d2b7c1d69d520cba756f16b19",
          "transactionIndex": "0x20",
          "logIndex": "0x13c",
          "removed": false
        },
        {
          "address": "0x674496fffc1ad1a11ef5b41c191fd7a698a0eb09",
          "topics": [
            "0x153a309a1eed1eb4a96469bedfff0aa799c297f5e800da3c4c158e9157aed26a",
            "0x000000000000000000000000000000000000000000000000000000000000000a",
            "0x000000000000000000000000a8a7da49bf284f2e00fc8857464c1652095ca338"
          ],
          "data": "0x0000000000000000000000000000000000000000000000000000000000000000000000000000000000000000000000000000000000000000000000681346b600000000000000000000000000000000000000000000000000000004f1e67422000000000000000000000000000000000000000000000000000000000068752ab400000000000000000000000000000000000000000000000000000000686164340000000000000000000000000000000000000000000000000000000000000007000000000000000000000000000000000000000000000000000001f495fc7c0000000000000000000000000000000000000000000000000000000000000000010000000000000000000000000000000000000000000000000000000000000000",
          "blockHash": "0x9ce4ea55ee1715c6b2e5eb1ea2aa83048875821aca35386d9b336ab7b77d6ac5",
          "blockNumber": "0x1a5087d",
          "transactionHash": "0x528822c3c662d2ebb546d29eefc9fb527cda1a1d2b7c1d69d520cba756f16b19",
          "transactionIndex": "0x20",
          "logIndex": "0x13d",
          "removed": false
        }
      ],
      "logsBloom": "0x04000040000000000000000000000000000000000000000000000000000000000000000000000000000000000000000000000000048000000020000002000000000000000000000040000028000000000000000000000000000010000000000000000010000000000001000000000000000000000000000000000010000000000000000000000000010001000000000000000000000000000000000200000000000000000000000000000000000000000000020000000000000000000000000000000002000000001000000000000000000000040000000000000000000000100000000000000000000000000000000000000000000000000000000000000000",
      "type": "0x2",
      "transactionHash": "0x528822c3c662d2ebb546d29eefc9fb527cda1a1d2b7c1d69d520cba756f16b19",
      "transactionIndex": "0x20",
      "blockHash": "0x9ce4ea55ee1715c6b2e5eb1ea2aa83048875821aca35386d9b336ab7b77d6ac5",
      "blockNumber": "0x1a5087d",
      "gasUsed": "0x3adbf",
      "effectiveGasPrice": "0xf429c",
      "from": "0xa8a7da49bf284f2e00fc8857464c1652095ca338",
      "to": "0x674496fffc1ad1a11ef5b41c191fd7a698a0eb09",
      "contractAddress": null,
      "l1BaseFeeScalar": "0x44d",
      "l1BlobBaseFee": "0x1",
      "l1BlobBaseFeeScalar": "0xa118b",
      "l1Fee": "0x124d4ef",
      "l1GasPrice": "0x8ae09f",
      "l1GasUsed": "0x77b"
    },
    {
      "status": "0x1",
      "cumulativeGasUsed": "0xed3a82",
      "logs": [
        {
          "address": "0xc997288d1e971df9667dcb906cdbfd6fb4e50a7b",
          "topics": [
            "0xddf252ad1be2c89b69c2b068fc378daa952ba7f163c4a11628f55a4df523b3ef",
            "0x000000000000000000000000a8a7da49bf284f2e00fc8857464c1652095ca338",
            "0x000000000000000000000000674496fffc1ad1a11ef5b41c191fd7a698a0eb09"
          ],
          "data": "0x00000000000000000000000000000000000000000000000000000c711f8a6000",
          "blockHash": "0x9ce4ea55ee1715c6b2e5eb1ea2aa83048875821aca35386d9b336ab7b77d6ac5",
          "blockNumber": "0x1a5087d",
          "transactionHash": "0xe3cddd5e4d7ce58b1b57ae51e4e7bc01ead2b9c26d3cee75750c3cee0d3ed5ba",
          "transactionIndex": "0x21",
          "logIndex": "0x13e",
          "removed": false
        },
        {
          "address": "0x674496fffc1ad1a11ef5b41c191fd7a698a0eb09",
          "topics": [
            "0x153a309a1eed1eb4a96469bedfff0aa799c297f5e800da3c4c158e9157aed26a",
            "0x000000000000000000000000000000000000000000000000000000000000000b",
            "0x000000000000000000000000a8a7da49bf284f2e00fc8857464c1652095ca338"
          ],
          "data": "0x000000000000000000000000000000000000000000000000000000000000000000000000000000000000000000000000000000000000000000000070750b1e000000000000000000000000000000000000000000000000000000061b3995c40000000000000000000000000000000000000000000000000000000000686e9334000000000000000000000000000000000000000000000000000000006864073400000000000000000000000000000000000000000000000000000000000000050000000000000000000000000000000000000000000000000000027d064ee00000000000000000000000000000000000000000000000000000000000000000010000000000000000000000000000000000000000000000000000000000000001",
          "blockHash": "0x9ce4ea55ee1715c6b2e5eb1ea2aa83048875821aca35386d9b336ab7b77d6ac5",
          "blockNumber": "0x1a5087d",
          "transactionHash": "0xe3cddd5e4d7ce58b1b57ae51e4e7bc01ead2b9c26d3cee75750c3cee0d3ed5ba",
          "transactionIndex": "0x21",
          "logIndex": "0x13f",
          "removed": false
        }
      ],
      "logsBloom": "0x04000040000000000000004000000000000000000000000000000000000000000000000000000000000000000000000000000000008000000000000002000000000000000000000040000028000000000000000000000000000010000000000000000010000000000001000000000000000000000000000000000010000000000000000000000000000001000000000000000000000000000000000200000000000000000000000000000000000000000000020000000000000000000000000000000002000000001000000000000000002000040000000000000000000000100000000000000000000000000000000000000000000000040000000000000000",
      "type": "0x2",
      "transactionHash": "0xe3cddd5e4d7ce58b1b57ae51e4e7bc01ead2b9c26d3cee75750c3cee0d3ed5ba",
      "transactionIndex": "0x21",
      "blockHash": "0x9ce4ea55ee1715c6b2e5eb1ea2aa83048875821aca35386d9b336ab7b77d6ac5",
      "blockNumber": "0x1a5087d",
      "gasUsed": "0x3fb87",
      "effectiveGasPrice": "0xf429c",
      "from": "0xa8a7da49bf284f2e00fc8857464c1652095ca338",
      "to": "0x674496fffc1ad1a11ef5b41c191fd7a698a0eb09",
      "contractAddress": null,
      "l1BaseFeeScalar": "0x44d",
      "l1BlobBaseFee": "0x1",
      "l1BlobBaseFeeScalar": "0xa118b",
      "l1Fee": "0x126e0d5",
      "l1GasPrice": "0x8ae09f",
      "l1GasUsed": "0x788"
    },
    {
      "status": "0x1",
      "cumulativeGasUsed": "0xf1360e",
      "logs": [
        {
          "address": "0xc997288d1e971df9667dcb906cdbfd6fb4e50a7b",
          "topics": [
            "0xddf252ad1be2c89b69c2b068fc378daa952ba7f163c4a11628f55a4df523b3ef",
            "0x000000000000000000000000a8a7da49bf284f2e00fc8857464c1652095ca338",
            "0x000000000000000000000000674496fffc1ad1a11ef5b41c191fd7a698a0eb09"
          ],
          "data": "0x000000000000000000000000000000000000000000000000000002d939bf5800",
          "blockHash": "0x9ce4ea55ee1715c6b2e5eb1ea2aa83048875821aca35386d9b336ab7b77d6ac5",
          "blockNumber": "0x1a5087d",
          "transactionHash": "0xecbdbc94cac0746aa4f9f54bebc09e258b3a0ad4964205ee07bc1a490d202abd",
          "transactionIndex": "0x22",
          "logIndex": "0x140",
          "removed": false
        },
        {
          "address": "0x674496fffc1ad1a11ef5b41c191fd7a698a0eb09",
          "topics": [
            "0x153a309a1eed1eb4a96469bedfff0aa799c297f5e800da3c4c158e9157aed26a",
            "0x000000000000000000000000000000000000000000000000000000000000000c",
            "0x000000000000000000000000a8a7da49bf284f2e00fc8857464c1652095ca338"
          ],
          "data": "0x00000000000000000000000000000000000000000000000000000000000000010000000000000000000000000000000000000000000000000000004d4cbdf800000000000000000000000000000000000000000000000000000002df4777dc0000000000000000000000000000000000000000000000000000000000687287b4000000000000000000000000000000000000000000000000000000006861643400000000000000000000000000000000000000000000000000000000000000020000000000000000000000000000000000000000000000000000016c9cdfac0000000000000000000000000000000000000000000000000000000000000000010000000000000000000000000000000000000000000000000000000000000002",
          "blockHash": "0x9ce4ea55ee1715c6b2e5eb1ea2aa83048875821aca35386d9b336ab7b77d6ac5",
          "blockNumber": "0x1a5087d",
          "transactionHash": "0xecbdbc94cac0746aa4f9f54bebc09e258b3a0ad4964205ee07bc1a490d202abd",
          "transactionIndex": "0x22",
          "logIndex": "0x141",
          "removed": false
        }
      ],
      "logsBloom": "0x04000040000000000000000000000000000002000000000000000000000000000000000000000200000000000000000000000000008000000000000002000000000000000000000040000028000000000000000000000000000010000000000000000010000000000001000000000000000000000000000000000010000000000000000000000000000001000000000000000000000000000000000200000000000000000000000000000000000000000000020000000000000000000000000000000002000000001000000000000000000000040000000000000000000000300000000000000000000000000000000000000000000000000000000000000000",
      "type": "0x2",
      "transactionHash": "0xecbdbc94cac0746aa4f9f54bebc09e258b3a0ad4964205ee07bc1a490d202abd",
      "transactionIndex": "0x22",
      "blockHash": "0x9ce4ea55ee1715c6b2e5eb1ea2aa83048875821aca35386d9b336ab7b77d6ac5",
      "blockNumber": "0x1a5087d",
      "gasUsed": "0x3fb8c",
      "effectiveGasPrice": "0xf429c",
      "from": "0xa8a7da49bf284f2e00fc8857464c1652095ca338",
      "to": "0x674496fffc1ad1a11ef5b41c191fd7a698a0eb09",
      "contractAddress": null,
      "l1BaseFeeScalar": "0x44d",
      "l1BlobBaseFee": "0x1",
      "l1BlobBaseFeeScalar": "0xa118b",
      "l1Fee": "0x12d0487",
      "l1GasPrice": "0x8ae09f",
      "l1GasUsed": "0x7b0"
    },
    {
      "status": "0x1",
      "cumulativeGasUsed": "0x168381",
      "logs": [
        {
          "address": "0xc997288d1e971df9667dcb906cdbfd6fb4e50a7b",
          "topics": [
            "0xddf252ad1be2c89b69c2b068fc378daa952ba7f163c4a11628f55a4df523b3ef",
            "0x000000000000000000000000a8a7da49bf284f2e00fc8857464c1652095ca338",
            "0x000000000000000000000000674496fffc1ad1a11ef5b41c191fd7a698a0eb09"
          ],
          "data": "0x00000000000000000000000000000000000000000000000000000f7265497000",
          "blockHash": "0x0c9a5b55d84e15c5bb26ad588174ceb4ff88bf59c92afba329197087b6f8be7e",
          "blockNumber": "0x1a5087e",
          "transactionHash": "0xf689cc1b6bcb7ce8dd99f54731753c534cf77ad9ae33d22863fb7fc61263fab5",
          "transactionIndex": "0x7",
          "logIndex": "0x15",
          "removed": false
        },
        {
          "address": "0x674496fffc1ad1a11ef5b41c191fd7a698a0eb09",
          "topics": [
            "0x153a309a1eed1eb4a96469bedfff0aa799c297f5e800da3c4c158e9157aed26a",
            "0x000000000000000000000000000000000000000000000000000000000000000d",
            "0x000000000000000000000000a8a7da49bf284f2e00fc8857464c1652095ca338"
          ],
          "data": "0x00000000000000000000000000000000000000000000000000000000000000000000000000000000000000000000000000000000000000000000001d562f6c00000000000000000000000000000000000000000000000000000004025146300000000000000000000000000000000000000000000000000000000000687287b400000000000000000000000000000000000000000000000000000000686558b40000000000000000000000000000000000000000000000000000000000000008000000000000000000000000000000000000000000000000000001ee4ca92e0000000000000000000000000000000000000000000000000000000000000000010000000000000000000000000000000000000000000000000000000000000000",
          "blockHash": "0x0c9a5b55d84e15c5bb26ad588174ceb4ff88bf59c92afba329197087b6f8be7e",
          "blockNumber": "0x1a5087e",
          "transactionHash": "0xf689cc1b6bcb7ce8dd99f54731753c534cf77ad9ae33d22863fb7fc61263fab5",
          "transactionIndex": "0x7",
          "logIndex": "0x16",
          "removed": false
        }
      ],
      "logsBloom": "0x04000040000000000040000000000000000000000000000000000000000000000000000000000000000000000000000000000000008000000000000002000000000000000000000040000028000000000002000000000000000010000000000000000010000000000001000000000000000000000000000000000010000000000000000000000000000001000000000000000000000000000000000200000000000000000000000000000000000000000000020000000000000000000000000000000002000000001000000000000000000000040000000000000000000000120000000000000000000000000000000000000000000000000000000000000000",
      "type": "0x2",
      "transactionHash": "0xf689cc1b6bcb7ce8dd99f54731753c534cf77ad9ae33d22863fb7fc61263fab5",
      "transactionIndex": "0x7",
      "blockHash": "0x0c9a5b55d84e15c5bb26ad588174ceb4ff88bf59c92afba329197087b6f8be7e",
      "blockNumber": "0x1a5087e",
      "gasUsed": "0x3adbf",
      "effectiveGasPrice": "0xf429d",
      "from": "0xa8a7da49bf284f2e00fc8857464c1652095ca338",
      "to": "0x674496fffc1ad1a11ef5b41c191fd7a698a0eb09",
      "contractAddress": null,
      "l1BaseFeeScalar": "0x44d",
      "l1BlobBaseFee": "0x1",
      "l1BlobBaseFeeScalar": "0xa118b",
      "l1Fee": "0x128a3a7",
      "l1GasPrice": "0x8caee4",
      "l1GasUsed": "0x77b"
    },
    {
      "status": "0x1",
      "cumulativeGasUsed": "0x1a7f08",
      "logs": [
        {
          "address": "0xc997288d1e971df9667dcb906cdbfd6fb4e50a7b",
          "topics": [
            "0xddf252ad1be2c89b69c2b068fc378daa952ba7f163c4a11628f55a4df523b3ef",
            "0x000000000000000000000000a8a7da49bf284f2e00fc8857464c1652095ca338",
            "0x000000000000000000000000674496fffc1ad1a11ef5b41c191fd7a698a0eb09"
          ],
          "data": "0x00000000000000000000000000000000000000000000000000000eb467e59000",
          "blockHash": "0x0c9a5b55d84e15c5bb26ad588174ceb4ff88bf59c92afba329197087b6f8be7e",
          "blockNumber": "0x1a5087e",
          "transactionHash": "0x6d223f7bcc71177d1d1202785cea2897804f3a004b726941d0899944abfb3246",
          "transactionIndex": "0x8",
          "logIndex": "0x17",
          "removed": false
        },
        {
          "address": "0x674496fffc1ad1a11ef5b41c191fd7a698a0eb09",
          "topics": [
            "0x153a309a1eed1eb4a96469bedfff0aa799c297f5e800da3c4c158e9157aed26a",
            "0x000000000000000000000000000000000000000000000000000000000000000e",
            "0x000000000000000000000000a8a7da49bf284f2e00fc8857464c1652095ca338"
          ],
          "data": "0x0000000000000000000000000000000000000000000000000000000000000000000000000000000000000000000000000000000000000000000000609fed760000000000000000000000000000000000000000000000000000000413c79f5e000000000000000000000000000000000000000000000000000000000068752ab400000000000000000000000000000000000000000000000000000000686164340000000000000000000000000000000000000000000000000000000000000008000000000000000000000000000000000000000000000000000001d68cfcb20000000000000000000000000000000000000000000000000000000000000000010000000000000000000000000000000000000000000000000000000000000001",
          "blockHash": "0x0c9a5b55d84e15c5bb26ad588174ceb4ff88bf59c92afba329197087b6f8be7e",
          "blockNumber": "0x1a5087e",
          "transactionHash": "0x6d223f7bcc71177d1d1202785cea2897804f3a004b726941d0899944abfb3246",
          "transactionIndex": "0x8",
          "logIndex": "0x18",
          "removed": false
        }
      ],
      "logsBloom": "0x04000040000000000000000000000000000000000000000000000000000000000000000000000000000000000000000000000000008000000000000002000000000000000000000840000028000000000000000000000000000010000000000000000010000000000001000000000000000000000000000000000010000000000000000000000000000001000000000008000000000000000000000200000000000000000000000000000000000000000000020000000020000000000000000000000002000000001000000000000000000000040000000000000000000000100000000000000000000000000000000000000000000000000000000000000000",
      "type": "0x2",
      "transactionHash": "0x6d223f7bcc71177d1d1202785cea2897804f3a004b726941d0899944abfb3246",
      "transactionIndex": "0x8",
      "blockHash": "0x0c9a5b55d84e15c5bb26ad588174ceb4ff88bf59c92afba329197087b6f8be7e",
      "blockNumber": "0x1a5087e",
      "gasUsed": "0x3fb87",
      "effectiveGasPrice": "0xf429d",
      "from": "0xa8a7da49bf284f2e00fc8857464c1652095ca338",
      "to": "0x674496fffc1ad1a11ef5b41c191fd7a698a0eb09",
      "contractAddress": null,
      "l1BaseFeeScalar": "0x44d",
      "l1BlobBaseFee": "0x1",
      "l1BlobBaseFeeScalar": "0xa118b",
      "l1Fee": "0x12cc913",
      "l1GasPrice": "0x8caee4",
      "l1GasUsed": "0x795"
    },
    {
      "status": "0x1",
      "cumulativeGasUsed": "0x1e2cc7",
      "logs": [
        {
          "address": "0xc997288d1e971df9667dcb906cdbfd6fb4e50a7b",
          "topics": [
            "0xddf252ad1be2c89b69c2b068fc378daa952ba7f163c4a11628f55a4df523b3ef",
            "0x000000000000000000000000a8a7da49bf284f2e00fc8857464c1652095ca338",
            "0x000000000000000000000000674496fffc1ad1a11ef5b41c191fd7a698a0eb09"
          ],
          "data": "0x0000000000000000000000000000000000000000000000000000156bdc32ca00",
          "blockHash": "0x0c9a5b55d84e15c5bb26ad588174ceb4ff88bf59c92afba329197087b6f8be7e",
          "blockNumber": "0x1a5087e",
          "transactionHash": "0x4af2757f05ed93d132e768de07888203f9cbe6dd55b6f50362b78aecf9a854e8",
          "transactionIndex": "0x9",
          "logIndex": "0x19",
          "removed": false
        },
        {
          "address": "0x674496fffc1ad1a11ef5b41c191fd7a698a0eb09",
          "topics": [
            "0x153a309a1eed1eb4a96469bedfff0aa799c297f5e800da3c4c158e9157aed26a",
            "0x000000000000000000000000000000000000000000000000000000000000000f",
            "0x000000000000000000000000a8a7da49bf284f2e00fc8857464c1652095ca338"
          ],
          "data": "0x00000000000000000000000000000000000000000000000000000000000000000000000000000000000000000000000000000000000000000000005a569a280000000000000000000000000000000000000000000000000000000354dbd0560000000000000000000000000000000000000000000000000000000000687287b4000000000000000000000000000000000000000000000000000000006866aa34000000000000000000000000000000000000000000000000000000000000000900000000000000000000000000000000000000000000000000000261515afa0000000000000000000000000000000000000000000000000000000000000000020000000000000000000000000000000000000000000000000000000000000000",
          "blockHash": "0x0c9a5b55d84e15c5bb26ad588174ceb4ff88bf59c92afba329197087b6f8be7e",
          "blockNumber": "0x1a5087e",
          "transactionHash": "0x4af2757f05ed93d132e768de07888203f9cbe6dd55b6f50362b78aecf9a854e8",
          "transactionIndex": "0x9",
          "logIndex": "0x1a",
          "removed": false
        }
      ],
      "logsBloom": "0x04000040000000000000000000000000000000000000000000000000000000000000000000000000000000000000000000000000008000000000000002000000000000000000000040000028000000000000000000000000000010000002000000000010000000000001000000000000000000000000000000000010000000000000000000000800000001000000000000000000000000000000000200000000000000000000000000000000000000000000020000000000000000000000000000000002000000001000000000000000000000040000000000000000000000100000000200000000000000000000000000000000000000000000000000000000",
      "type": "0x2",
      "transactionHash": "0x4af2757f05ed93d132e768de07888203f9cbe6dd55b6f50362b78aecf9a854e8",
      "transactionIndex": "0x9",
      "blockHash": "0x0c9a5b55d84e15c5bb26ad588174ceb4ff88bf59c92afba329197087b6f8be7e",
      "blockNumber": "0x1a5087e",
      "gasUsed": "0x3adbf",
      "effectiveGasPrice": "0xf429d",
      "from": "0xa8a7da49bf284f2e00fc8857464c1652095ca338",
      "to": "0x674496fffc1ad1a11ef5b41c191fd7a698a0eb09",
      "contractAddress": null,
      "l1BaseFeeScalar": "0x44d",
      "l1BlobBaseFee": "0x1",
      "l1BlobBaseFeeScalar": "0xa118b",
      "l1Fee": "0x12ab65d",
      "l1GasPrice": "0x8caee4",
      "l1GasUsed": "0x788"
    },
    {
      "status": "0x1",
      "cumulativeGasUsed": "0x22284e",
      "logs": [
        {
          "address": "0xc997288d1e971df9667dcb906cdbfd6fb4e50a7b",
          "topics": [
            "0xddf252ad1be2c89b69c2b068fc378daa952ba7f163c4a11628f55a4df523b3ef",
            "0x000000000000000000000000a8a7da49bf284f2e00fc8857464c1652095ca338",
            "0x000000000000000000000000674496fffc1ad1a11ef5b41c191fd7a698a0eb09"
          ],
          "data": "0x0000000000000000000000000000000000000000000000000000046e59d45000",
          "blockHash": "0x0c9a5b55d84e15c5bb26ad588174ceb4ff88bf59c92afba329197087b6f8be7e",
          "blockNumber": "0x1a5087e",
          "transactionHash": "0x1c319ab16ed2501ef3059b15530099a10b241f6f72f6621785346ea45c049a13",
          "transactionIndex": "0xa",
          "logIndex": "0x1b",
          "removed": false
        },
        {
          "address": "0x674496fffc1ad1a11ef5b41c191fd7a698a0eb09",
          "topics": [
            "0x153a309a1eed1eb4a96469bedfff0aa799c297f5e800da3c4c158e9157aed26a",
            "0x0000000000000000000000000000000000000000000000000000000000000010",
            "0x000000000000000000000000a8a7da49bf284f2e00fc8857464c1652095ca338"
          ],
          "data": "0x0000000000000000000000000000000000000000000000000000000000000000000000000000000000000000000000000000000000000000000000491bdbc4000000000000000000000000000000000000000000000000000000052861f0c60000000000000000000000000000000000000000000000000000000000686fe4b4000000000000000000000000000000000000000000000000000000006866aa3400000000000000000000000000000000000000000000000000000000000000040000000000000000000000000000000000000000000000000000011b9675140000000000000000000000000000000000000000000000000000000000000000020000000000000000000000000000000000000000000000000000000000000001",
          "blockHash": "0x0c9a5b55d84e15c5bb26ad588174ceb4ff88bf59c92afba329197087b6f8be7e",
          "blockNumber": "0x1a5087e",
          "transactionHash": "0x1c319ab16ed2501ef3059b15530099a10b241f6f72f6621785346ea45c049a13",
          "transactionIndex": "0xa",
          "logIndex": "0x1c",
          "removed": false
        }
      ],
      "logsBloom": "0x04000040100000000000000000000000000000000000000000000000000000000000000000000000000000000000000000000000008000000000000002000000000000000000000040000028000000000000000000000000000010000000000000000010000000000001000000000000000000000000000000000010040000000000000000000000000001000000000000000100000000000000000200000000000000000000000000000000000000000000020000000000000000000000000000000002000000001000000000000000000000040000000000000000000000100000000000000000000000000000000000000000000000000000000000000000",
      "type": "0x2",
      "transactionHash": "0x1c319ab16ed2501ef3059b15530099a10b241f6f72f6621785346ea45c049a13",
      "transactionIndex": "0xa",
      "blockHash": "0x0c9a5b55d84e15c5bb26ad588174ceb4ff88bf59c92afba329197087b6f8be7e",
      "blockNumber": "0x1a5087e",
      "gasUsed": "0x3fb87",
      "effectiveGasPrice": "0xf429d",
      "from": "0xa8a7da49bf284f2e00fc8857464c1652095ca338",
      "to": "0x674496fffc1ad1a11ef5b41c191fd7a698a0eb09",
      "contractAddress": null,
      "l1BaseFeeScalar": "0x44d",
      "l1BlobBaseFee": "0x1",
      "l1BlobBaseFeeScalar": "0xa118b",
      "l1Fee": "0x12cc913",
      "l1GasPrice": "0x8caee4",
      "l1GasUsed": "0x795"
    },
    {
      "status": "0x1",
      "cumulativeGasUsed": "0x2623da",
      "logs": [
        {
          "address": "0xc997288d1e971df9667dcb906cdbfd6fb4e50a7b",
          "topics": [
            "0xddf252ad1be2c89b69c2b068fc378daa952ba7f163c4a11628f55a4df523b3ef",
            "0x000000000000000000000000a8a7da49bf284f2e00fc8857464c1652095ca338",
            "0x000000000000000000000000674496fffc1ad1a11ef5b41c191fd7a698a0eb09"
          ],
          "data": "0x00000000000000000000000000000000000000000000000000000e98ee8c7400",
          "blockHash": "0x0c9a5b55d84e15c5bb26ad588174ceb4ff88bf59c92afba329197087b6f8be7e",
          "blockNumber": "0x1a5087e",
          "transactionHash": "0x481b8a53793cb15502e5d69742ac846ee696f11610315c9d66f8bd136c9d38c3",
          "transactionIndex": "0xb",
          "logIndex": "0x1d",
          "removed": false
        },
        {
          "address": "0x674496fffc1ad1a11ef5b41c191fd7a698a0eb09",
          "topics": [
            "0x153a309a1eed1eb4a96469bedfff0aa799c297f5e800da3c4c158e9157aed26a",
            "0x0000000000000000000000000000000000000000000000000000000000000011",
            "0x000000000000000000000000a8a7da49bf284f2e00fc8857464c1652095ca338"
          ],
          "data": "0x000000000000000000000000000000000000000000000000000000000000000100000000000000000000000000000000000000000000000000000028fa6ae000000000000000000000000000000000000000000000000000000006e375945c000000000000000000000000000000000000000000000000000000000068752ab4000000000000000000000000000000000000000000000000000000006866aa3400000000000000000000000000000000000000000000000000000000000000060000000000000000000000000000000000000000000000000000026ed26cbe0000000000000000000000000000000000000000000000000000000000000000020000000000000000000000000000000000000000000000000000000000000002",
          "blockHash": "0x0c9a5b55d84e15c5bb26ad588174ceb4ff88bf59c92afba329197087b6f8be7e",
          "blockNumber": "0x1a5087e",
          "transactionHash": "0x481b8a53793cb15502e5d69742ac846ee696f11610315c9d66f8bd136c9d38c3",
          "transactionIndex": "0xb",
          "logIndex": "0x1e",
          "removed": false
        }
      ],
      "logsBloom": "0x04000040000000000000000000000000000000000000000000000000000000000000000000000000000000000000000000000000008000000000000002000000000000000000000040000028000000000000000000000000000010000000000000000010000000000001000000000000000000004000000000000010000000000000000000000000000001000000000000000000000000000000000200000000000000000000000000000000000000000000020000000000000000000400000000001002000000001000000000000000000000040000000000000000000000100000000000000000000000000000000000000000000000000000000000000000",
      "type": "0x2",
      "transactionHash": "0x481b8a53793cb15502e5d69742ac846ee696f11610315c9d66f8bd136c9d38c3",
      "transactionIndex": "0xb",
      "blockHash": "0x0c9a5b55d84e15c5bb26ad588174ceb4ff88bf59c92afba329197087b6f8be7e",
      "blockNumber": "0x1a5087e",
      "gasUsed": "0x3fb8c",
      "effectiveGasPrice": "0xf429d",
      "from": "0xa8a7da49bf284f2e00fc8857464c1652095ca338",
      "to": "0x674496fffc1ad1a11ef5b41c191fd7a698a0eb09",
      "contractAddress": null,
      "l1BaseFeeScalar": "0x44d",
      "l1BlobBaseFee": "0x1",
      "l1BlobBaseFeeScalar": "0xa118b",
      "l1Fee": "0x137269f",
      "l1GasPrice": "0x8caee4",
      "l1GasUsed": "0x7d8"
    },
    {
      "status": "0x1",
      "cumulativeGasUsed": "0x29d19e",
      "logs": [
        {
          "address": "0xc997288d1e971df9667dcb906cdbfd6fb4e50a7b",
          "topics": [
            "0xddf252ad1be2c89b69c2b068fc378daa952ba7f163c4a11628f55a4df523b3ef",
            "0x000000000000000000000000a8a7da49bf284f2e00fc8857464c1652095ca338",
            "0x000000000000000000000000674496fffc1ad1a11ef5b41c191fd7a698a0eb09"
          ],
          "data": "0x0000000000000000000000000000000000000000000000000000113704b76000",
          "blockHash": "0x0c9a5b55d84e15c5bb26ad588174ceb4ff88bf59c92afba329197087b6f8be7e",
          "blockNumber": "0x1a5087e",
          "transactionHash": "0xbc2fb315377fd087f5e3c6869be2cd04f417aaf96e6718de2fc99105ca23542e",
          "transactionIndex": "0xc",
          "logIndex": "0x1f",
          "removed": false
        },
        {
          "address": "0x674496fffc1ad1a11ef5b41c191fd7a698a0eb09",
          "topics": [
            "0x153a309a1eed1eb4a96469bedfff0aa799c297f5e800da3c4c158e9157aed26a",
            "0x0000000000000000000000000000000000000000000000000000000000000012",
            "0x000000000000000000000000a8a7da49bf284f2e00fc8857464c1652095ca338"
          ],
          "data": "0x0000000000000000000000000000000000000000000000000000000000000001000000000000000000000000000000000000000000000000000000210fdc0c000000000000000000000000000000000000000000000000000000024383f5fa000000000000000000000000000000000000000000000000000000000068713634000000000000000000000000000000000000000000000000000000006866aa3400000000000000000000000000000000000000000000000000000000000000070000000000000000000000000000000000000000000000000000027592f5a00000000000000000000000000000000000000000000000000000000000000000020000000000000000000000000000000000000000000000000000000000000000",
          "blockHash": "0x0c9a5b55d84e15c5bb26ad588174ceb4ff88bf59c92afba329197087b6f8be7e",
          "blockNumber": "0x1a5087e",
          "transactionHash": "0xbc2fb315377fd087f5e3c6869be2cd04f417aaf96e6718de2fc99105ca23542e",
          "transactionIndex": "0xc",
          "logIndex": "0x20",
          "removed": false
        }
      ],
      "logsBloom": "0x04000040000000000000000000000000000000000000000000000000000000000000000000000000000000000000000000000000008000000000000002000000000000000000000040000028000000000000000000000000000010000000000000000010000000000001000000000000000000000000000000000010000000000000000000000000000001000000040000000000000000000000000200000000000000000000000000000000000000000000020000000040000000000000000000000002000000001400000000000000000000040000000000000000000000100000000000000000000000000000000000000000000000000000000000000000",
      "type": "0x2",
      "transactionHash": "0xbc2fb315377fd087f5e3c6869be2cd04f417aaf96e6718de2fc99105ca23542e",
      "transactionIndex": "0xc",
      "blockHash": "0x0c9a5b55d84e15c5bb26ad588174ceb4ff88bf59c92afba329197087b6f8be7e",
      "blockNumber": "0x1a5087e",
      "gasUsed": "0x3adc4",
      "effectiveGasPrice": "0xf429d",
      "from": "0xa8a7da49bf284f2e00fc8857464c1652095ca338",
      "to": "0x674496fffc1ad1a11ef5b41c191fd7a698a0eb09",
      "contractAddress": null,
      "l1BaseFeeScalar": "0x44d",
      "l1BlobBaseFee": "0x1",
      "l1BlobBaseFeeScalar": "0xa118b",
      "l1Fee": "0x1330134",
      "l1GasPrice": "0x8caee4",
      "l1GasUsed": "0x7be"
    },
    {
      "status": "0x1",
      "cumulativeGasUsed": "0x2dcd25",
      "logs": [
        {
          "address": "0xc997288d1e971df9667dcb906cdbfd6fb4e50a7b",
          "topics": [
            "0xddf252ad1be2c89b69c2b068fc378daa952ba7f163c4a11628f55a4df523b3ef",
            "0x000000000000000000000000a8a7da49bf284f2e00fc8857464c1652095ca338",
            "0x000000000000000000000000674496fffc1ad1a11ef5b41c191fd7a698a0eb09"
          ],
          "data": "0x000000000000000000000000000000000000000000000000000015c5f7322800",
          "blockHash": "0x0c9a5b55d84e15c5bb26ad588174ceb4ff88bf59c92afba329197087b6f8be7e",
          "blockNumber": "0x1a5087e",
          "transactionHash": "0x6cdf57dd0808f4906a32763f92db446ef0a8c4ee3e85b73342b4cf162c9fde36",
          "transactionIndex": "0xd",
          "logIndex": "0x21",
          "removed": false
        },
        {
          "address": "0x674496fffc1ad1a11ef5b41c191fd7a698a0eb09",
          "topics": [
            "0x153a309a1eed1eb4a96469bedfff0aa799c297f5e800da3c4c158e9157aed26a",
            "0x0000000000000000000000000000000000000000000000000000000000000013",
            "0x000000000000000000000000a8a7da49bf284f2e00fc8857464c1652095ca338"
          ],
          "data": "0x000000000000000000000000000000000000000000000000000000000000000000000000000000000000000000000000000000000000000000000036f2b238000000000000000000000000000000000000000000000000000000064864e2d8000000000000000000000000000000000000000000000000000000000068713634000000000000000000000000000000000000000000000000000000006864073400000000000000000000000000000000000000000000000000000000000000090000000000000000000000000000000000000000000000000000026b545ae80000000000000000000000000000000000000000000000000000000000000000020000000000000000000000000000000000000000000000000000000000000001",
          "blockHash": "0x0c9a5b55d84e15c5bb26ad588174ceb4ff88bf59c92afba329197087b6f8be7e",
          "blockNumber": "0x1a5087e",
          "transactionHash": "0x6cdf57dd0808f4906a32763f92db446ef0a8c4ee3e85b73342b4cf162c9fde36",
          "transactionIndex": "0xd",
          "logIndex": "0x22",
          "removed": false
        }
      ],
      "logsBloom": "0x24000040000000000000000000800000000000000000000000000000000000000000000040000000000000000000000000000000008000000000000002000000000000000000000040000028000000000000000000000000000010000000000000000010000000000001000000000000000000000000000000000010000000000000000000000000000001000000000000000000000000000000000200000000000000000000000000000000000000000000020000000000000000000000000000000002000000001000000000000000000000040000000000000000000000100000000000000000000000000000000000000000000000000000000000000000",
      "type": "0x2",
      "transactionHash": "0x6cdf57dd0808f4906a32763f92db446ef0a8c4ee3e85b73342b4cf162c9fde36",
      "transactionIndex": "0xd",
      "blockHash": "0x0c9a5b55d84e15c5bb26ad588174ceb4ff88bf59c92afba329197087b6f8be7e",
      "blockNumber": "0x1a5087e",
      "gasUsed": "0x3fb87",
      "effectiveGasPrice": "0xf429d",
      "from": "0xa8a7da49bf284f2e00fc8857464c1652095ca338",
      "to": "0x674496fffc1ad1a11ef5b41c191fd7a698a0eb09",
      "contractAddress": null,
      "l1BaseFeeScalar": "0x44d",
      "l1BlobBaseFee": "0x1",
      "l1BlobBaseFeeScalar": "0xa118b",
      "l1Fee": "0x12ab65d",
      "l1GasPrice": "0x8caee4",
      "l1GasUsed": "0x788"
    }
  ],
  "libraries": [],
  "pending": [],
  "returns": {},
  "timestamp": 1750953950,
  "chain": 84532,
  "commit": "c462e39"
}