{
  "transactions": [
    {
      "hash": "0x3e76e7bfcf5e9b120aa735296d6691651a9949e247bd9666455234195c1e40c0",
      "transactionType": "CALL",
      "contractName": null,
      "contractAddress": "0x7ecf113b2c5b882ff6dc9bde5c30cd9a20f9a807",
      "function": "createOption(bool,uint256,uint256,uint256,uint256,uint256,uint256,uint64,uint8)",
      "arguments": [
        "true",
        "10000000000000",
        "10000000000000",
        "1751217060",
        "1751389860",
        "10",
        "10000000000000",
        "1",
        "0"
      ],
      "transaction": {
        "from": "0xa8a7da49bf284f2e00fc8857464c1652095ca338",
        "to": "0x7ecf113b2c5b882ff6dc9bde5c30cd9a20f9a807",
        "gas": "0x514e0",
        "value": "0x0",
        "input": "0xc1f83e8d0000000000000000000000000000000000000000000000000000000000000001000000000000000000000000000000000000000000000000000009184e72a000000000000000000000000000000000000000000000000000000009184e72a00000000000000000000000000000000000000000000000000000000000686173a400000000000000000000000000000000000000000000000000000000686416a4000000000000000000000000000000000000000000000000000000000000000a000000000000000000000000000000000000000000000000000009184e72a00000000000000000000000000000000000000000000000000000000000000000010000000000000000000000000000000000000000000000000000000000000000",
        "nonce": "0x140",
        "chainId": "0x14a34"
      },
      "additionalContracts": [],
      "isFixedGasLimit": false
    }
  ],
  "receipts": [
    {
      "status": "0x1",
      "cumulativeGasUsed": "0x1e1640",
      "logs": [
        {
          "address": "0xc997288d1e971df9667dcb906cdbfd6fb4e50a7b",
          "topics": [
            "0xddf252ad1be2c89b69c2b068fc378daa952ba7f163c4a11628f55a4df523b3ef",
            "0x000000000000000000000000a8a7da49bf284f2e00fc8857464c1652095ca338",
            "0x0000000000000000000000007ecf113b2c5b882ff6dc9bde5c30cd9a20f9a807"
          ],
          "data": "0x00000000000000000000000000000000000000000000000000005af3107a4000",
          "blockHash": "0x7e023250e77c1b9c0195bea5563e5a961e9bc0d7fd6fa92c3c361e7f5a02ce62",
          "blockNumber": "0x1a51027",
          "transactionHash": "0x3e76e7bfcf5e9b120aa735296d6691651a9949e247bd9666455234195c1e40c0",
          "transactionIndex": "0x5",
          "logIndex": "0x8",
          "removed": false
        },
        {
          "address": "0x7ecf113b2c5b882ff6dc9bde5c30cd9a20f9a807",
          "topics": [
            "0x153a309a1eed1eb4a96469bedfff0aa799c297f5e800da3c4c158e9157aed26a",
            "0x0000000000000000000000000000000000000000000000000000000000000007",
            "0x000000000000000000000000a8a7da49bf284f2e00fc8857464c1652095ca338"
          ],
          "data": "0x0000000000000000000000000000000000000000000000000000000000000001000000000000000000000000000000000000000000000000000009184e72a000000000000000000000000000000000000000000000000000000009184e72a00000000000000000000000000000000000000000000000000000000000686416a400000000000000000000000000000000000000000000000000000000686173a4000000000000000000000000000000000000000000000000000000000000000a000000000000000000000000000000000000000000000000000009184e72a00000000000000000000000000000000000000000000000000000000000000000010000000000000000000000000000000000000000000000000000000000000000",
          "blockHash": "0x7e023250e77c1b9c0195bea5563e5a961e9bc0d7fd6fa92c3c361e7f5a02ce62",
          "blockNumber": "0x1a51027",
          "transactionHash": "0x3e76e7bfcf5e9b120aa735296d6691651a9949e247bd9666455234195c1e40c0",
          "transactionIndex": "0x5",
          "logIndex": "0x9",
          "removed": false
        }
      ],
      "logsBloom": "0x00000040000800400000000000400000000000000000000000000000000000000000000000000000000000000000000000001000008000000000000000000000000020000000000040000008000000000000000000000000000010000000000000000000000000000008000000000000000000000000400000000090000000000000000000000000000001000000000000000000000000000000000200000000000000000000000000000000000000000000000000000000000000000000000000000002000000001000000000000000000000040000000000000100000000100000000000000000000000000000000000000000000000000000000000000000",
      "type": "0x2",
      "transactionHash": "0x3e76e7bfcf5e9b120aa735296d6691651a9949e247bd9666455234195c1e40c0",
      "transactionIndex": "0x5",
      "blockHash": "0x7e023250e77c1b9c0195bea5563e5a961e9bc0d7fd6fa92c3c361e7f5a02ce62",
      "blockNumber": "0x1a51027",
      "gasUsed": "0x3add0",
      "effectiveGasPrice": "0xf42bc",
      "from": "0xa8a7da49bf284f2e00fc8857464c1652095ca338",
      "to": "0x7ecf113b2c5b882ff6dc9bde5c30cd9a20f9a807",
      "contractAddress": null,
      "l1BaseFeeScalar": "0x44d",
      "l1BlobBaseFee": "0x1",
      "l1BlobBaseFeeScalar": "0xa118b",
      "l1Fee": "0x1899d5",
      "l1GasPrice": "0xc8b13",
      "l1GasUsed": "0x6f5"
    }
  ],
  "libraries": [],
  "pending": [],
  "returns": {},
  "timestamp": 1750957872,
  "chain": 84532,
  "commit": "7aa3a80"
}